:100000000C946B000C94B6030C948F030C94930027
:100010000C9493000C9493000C9493000C94930014
:100020000C9493000C9493000C9493000C94930004
:100030000C9493000C9493000C9493000C949300F4
:100040000C9445030C9493000C94B9010C94930107
:100050000C9493000C9493000C9493000C949300D4
:100060000C9493000C9493000000000025002800DD
:100070002B0000000008000201000003040700003C
:1000800000000000000000000000240027002A00FB
:100090001112131415160A0B0C0D0E0F000102039A
:1000A00004050000000023002600290004040404C5
:1000B0000404040402020202020203030303030312
:1000C00001020408102040800102040810200102EF
:1000D00004081020660B11241FBECFEFD8E0DEBF4E
:1000E000CDBF22E0A8EAB1E001C01D92A43CB20756
:1000F000E1F711E0A0E0B1E0EAE2FDE102C0059025
:100100000D92A83AB107D9F710E0CBE6D0E004C0D1
:100110002197FE010E94880ECA36D107C9F70E94B6
:10012000B5070C94930E0C940000FC01918D828D08
:10013000981761F0828DDF01A80FB11D5D968C913B
:10014000928D9F5F9F73928F90E008958FEF9FEF46
:100150000895FC01918D828D981731F0828DE80F02
:10016000F11D858D90E008958FEF9FEF0895FC01BC
:10017000918D228D892F90E0805C9F4F821B910989
:100180008F73992708958BEB91E00E94B70021E0CF
:10019000892B09F420E0822F0895FC01848DDF0172
:1001A000A80FB11DA35ABF4F2C91848D90E00196EA
:1001B0008F739927848FA689B7892C93A089B189D9
:1001C0008C9180648C93938D848D981306C00288E3
:1001D000F389E02D80818F7D80830895EF92FF92D7
:1001E0000F931F93CF93DF93EC0181E0888F9B8D5A
:1001F0008C8D981305C0E889F989808185FD24C01C
:10020000F62E0B8D10E00F5F1F4F0F731127E02E9E
:100210008C8DE8120CC00FB607FCFACFE889F9897B
:10022000808185FFF5CFCE010E94CD00F1CF8B8D6F
:10023000FE01E80FF11DE35AFF4FF0820B8FEA89B0
:10024000FB898081806207C0EE89FF896083E8892D
:10025000F98980818064808381E090E0DF91CF9193
:100260001F910F91FF90EF900895CF93DF93EC01D2
:10027000888D8823C9F0EA89FB89808185FD05C0C6
:10028000A889B9898C9186FD0FC00FB607FCF5CF00
:10029000808185FFF2CFA889B9898C9185FFEDCF48
:1002A000CE010E94CD00E7CFDF91CF91089580E08D
:1002B00090E0892B29F00E94C30081110C9400006A
:1002C00008953FB7F8948091AD019091AE01A0914F
:1002D000AF01B091B00126B5A89B05C02F3F19F022
:1002E0000196A11DB11D3FBFBA2FA92F982F8827B6
:1002F000820F911DA11DB11DBC01CD0142E0660F11
:10030000771F881F991F4A95D1F708952FB7F89442
:100310006091A9017091AA018091AB019091AC010B
:100320002FBF089508951F920F920FB60F921124B8
:100330002F933F934F935F936F937F938F939F93ED
:10034000AF93BF93EF93FF938BEB91E00E94CD00AF
:10035000FF91EF91BF91AF919F918F917F916F919D
:100360005F914F913F912F910F900FBE0F901F9073
:1003700018951F920F920FB60F9211242F938F93FF
:100380009F93EF93FF93E091CB01F091CC0180819B
:10039000E091D101F091D20182FD12C09081809153
:1003A000D4018F5F8F732091D501821751F0E091B6
:1003B000D401F0E0E554FE4F958F8093D40101C045
:1003C0008081FF91EF919F918F912F910F900FBEA0
:1003D0000F901F90189590E0FC01EE58FF4F34915C
:1003E000FC01E054FF4F2491FC01E455FF4FE491E0
:1003F000EE2309F43BC0332339F1333091F038F464
:100400003130A9F0323001F584B58F7D12C037301C
:1004100091F03830A1F03430B9F4809180008F7DB4
:1004200003C0809180008F77809380000DC084B5D9
:100430008F7784BD09C08091B0008F7703C0809111
:10044000B0008F7D8093B000F0E0EE0FFF1FE85901
:10045000FF4FA591B4918FB7F894EC91611103C04F
:1004600020952E2301C02E2B2C938FBF0895CF9360
:10047000DF9390E0FC01E054FF4F2491FC01E45530
:10048000FF4F8491882361F190E0880F991FFC0150
:10049000EA57FF4FC591D491FC01E859FF4FA59150
:1004A000B491611109C09FB7F89488812095822387
:1004B0008883EC912E230BC0623061F49FB7F894CF
:1004C0003881822F809583238883EC912E2B2C9367
:1004D0009FBF06C08FB7F894E8812E2B28838FBF6B
:1004E000DF91CF9108958230910538F0880F991FE0
:1004F000880F991F05970197F1F708958F929F92A2
:10050000AF92BF92CF92DF92EF92FF926B017C018C
:100510000E9461014B015C01C114D104E104F104AA
:10052000F1F00E946101DC01CB0188199909AA0947
:10053000BB09883E9340A105B10570F321E0C21AC2
:10054000D108E108F10888EE880E83E0981EA11C0E
:10055000B11CC114D104E104F10419F7DDCFFF90FF
:10056000EF90DF90CF90BF90AF909F908F900895C5
:10057000CF93DF93C1E0C09304010E9404068CEC8A
:100580000E94A40584E40E94A40568EE73E080E064
:1005900090E00E947E020E9404068CEC0E94A4055A
:1005A0008EEB0E94A4050E946805D82F0E94680562
:1005B000682F70E0762F66276D0F711D072E000CD7
:1005C000880B990B0E94120C20E030E040E85DE3BC
:1005D0000E94710C609305017093060180930701DE
:1005E00090930801C0931D0180E480937C0080916A
:1005F0007C008E6080937C008AEF90E00E94730202
:1006000080917A00806480937A0080917A0086FDE0
:10061000FCCF20917800309179002115310569F0E7
:1006200040E050E064EB7BE281E190E00E94690EE3
:10063000CA01B9010E94120C04C060E070E080E8B9
:100640009FEB20E030E04AE754E40E94BE0D609347
:100650001E0170931F01809320019093210181E07E
:10066000809336016091B20170E080E090E00E94DA
:10067000100C609337017093380180933901909387
:100680003A0181E0DF91CF9108951F920F920FB64A
:100690000F9211242F933F938F939F93AF93BF9308
:1006A0008091A9019091AA01A091AB01B091AC01F8
:1006B0003091A80123E0230F2D3720F40196A11DCE
:1006C000B11D05C026E8230F0296A11DB11D209380
:1006D000A8018093A9019093AA01A093AB01B093C4
:1006E000AC018091AD019091AE01A091AF01B091AC
:1006F000B0010196A11DB11D8093AD019093AE0193
:10070000A093AF01B093B001BF91AF919F918F9132
:100710003F912F910F900FBE0F901F9018951F9231
:100720000F920FB60F9211242F933F934F935F9325
:100730006F937F938F939F93AF93BF93EF93FF93A9
:10074000E0910201F09103010995FF91EF91BF91B2
:10075000AF919F918F917F916F915F914F913F9159
:100760002F910F900FBE0F901F9018951F920F9210
:100770000FB60F9211242F933F934F935F936F9374
:100780007F938F939F93AF93BF93EF93FF93E091EA
:100790000001F09101010995FF91EF91BF91AF9197
:1007A0009F918F917F916F915F914F913F912F9189
:1007B0000F900FBE0F901F9018958EBD00000DB4C6
:1007C00007FEFDCF8EB50895EF92FF920F931F9312
:1007D000CF93DF93CDB7DEB7E5970FB6F894DEBFC2
:1007E0000FBECDBF87E10E946D0680FFABC02FC05A
:1007F0000E94550660E787E00E9484069CA98BA9A9
:10080000823009F4CBC008F0C4C0813009F005C1C2
:1008100060E070E080E490E411E019836A837B83F8
:100820008C839D8389E1FE013196DE015A96019009
:100830000D928A95E1F760E771E08BEB91E00E9401
:10084000570764E871E08BEB91E00E94570780E066
:100850000E94D1068091BC029091BD020E94730259
:100860008DE10E946D0681FF08C08091BC029091CD
:10087000BD020E9473020E945B0680E00E946D062A
:10088000682F6E7F80E00E94840682E00E946D06E1
:10089000ECE9F0E0E49161E070E001C0660FEA95F8
:1008A000EAF7682B82E00E9484061091B302012FC0
:1008B0001A3108F009E18091B402811102C0101BC5
:1008C00001C010E00E94580680EA0E94DD037E010C
:1008D000FAE1EF0EF11C015030F0F70181917F0138
:1008E0000E94DD03F8CF112329F080E00E94DD0390
:1008F0001150F9CF0E94550681E00E94D1060E9456
:1009000058068FEF0E94DD038DAB0E9455068DA91E
:100910008073A9F380E00E94D10660E787E00E941F
:10092000840684FD0E945B06E5960FB6F894DEBF50
:100930000FBECDBFDF91CF911F910F91FF90EF9030
:100940000C94EB061091B302123008F46AC002E076
:100950008091B402811102C0101B01C010E00E94FE
:10096000580681E60E94DD037E0183E3E80EF11C58
:10097000015038F08FEF0E94DD03F70181937F0172
:10098000F7CF112309F434CF8FEF0E94DD0311500C
:10099000F8CF833039F08430B9F03FC00E94B802FC
:1009A000182F3BC06091B20181E0162F18271093D9
:1009B000B201612F84E00E94EB01612F70E080E0C2
:1009C00090E00E94100C28CF892F90E08330910591
:1009D00054F084E1EFE5F1E0DE01169601900D920E
:1009E0008A95E1F71AC029E1289FF001299FF00DAF
:1009F0001124DF01AC5FBE4F1C9111966D917D916A
:100A00008D919C911497E75FFE4F24E1DE011696CD
:100A100001900D922A95E1F700CF60E070E0CB01E4
:100A2000FCCE012F95CFCF92DF92EF92FF920F93E2
:100A30001F93CF93DF936C017A018B01C0E0D0E06C
:100A4000CE15DF0589F0D8016D918D01D601ED91AC
:100A5000FC910190F081E02DC6010995892B11F4DC
:100A60007E0102C02196ECCFC701DF91CF911F918B
:100A70000F91FF90EF90DF90CF9008950E948E0E1F
:100A8000EBEBF1E0A089B18982E08C93A485B58578
:100A90001C92A685B7858FEC8C93108EA489B5899E
:100AA00086E08C93A289B3898C9180618C93A28912
:100AB000B3898C9188608C93A289B3898C9180686A
:100AC0008C930288F389E02D80818F7D8083089547
:100AD000EF92FF920F931F93CF93DF9348E050E084
:100AE00031E080E097E0E92EF12CC3E2D0E00FEC9A
:100AF00010E090915802E0915902F0915A02F89456
:100B00002181292B21836281292F209562236283F1
:100B1000D7011197F1F7618126232183DE01119717
:100B2000F1F720817894F8013197F1F7922309F0D9
:100B3000832B330F41505109E1F6DF91CF911F9183
:100B40000F91FF90EF900895CF92DF92EF92FF9276
:100B50000F931F93CF93DF9328E030E041E06FEFD6
:100B600070E09FE0C92ED12CC3E2D0E007ED10E089
:100B700090915802E0915902F0915A02592F5095E4
:100B8000F42EF82281F0F894F2805F215283518193
:100B9000592B5183DE011197F1F75281952B9283E6
:100BA0007894F8010FC0F894F2805F21528351814C
:100BB000592B5183DB011197F1F75281952B9283C9
:100BC0007894F6013197F1F7440F2150310981F6FD
:100BD000F894E0915902F0915A0291818091580263
:100BE000809598239183E0915902F0915A02928165
:100BF000892382837894DF91CF911F910F91FF9089
:100C0000EF90DF90CF90089590915802E0915902B3
:100C1000F0915A02F8948181292F209582238183B3
:100C200078948DE743E050E0815021F1DA0111978B
:100C3000F1F730813923C1F3F894828182238283D2
:100C40008181892B81837894ABE7B7E01197F1F725
:100C5000F894818128232183A3E1B1E01197F1F772
:100C60008081982381E009F080E07894E3E6F6E063
:100C70003197F1F70895CF93DF939CB59F7D9CBD8D
:100C80009CB5937F9CBD9CB59C7F9CBD9DB59160A0
:100C90009DBDCEEAD2E0682F89810E94EB018A894E
:100CA0009B89DF91CF910C94730281E00C943B06F9
:100CB00080E00C943B06CF93DF931F92CDB7DEB755
:100CC0000E94580681EE0E94DD0389830E9455062A
:100CD00089810F90DF91CF910895CF93DF931F9279
:100CE000CDB7DEB789830E94580689818F710E9433
:100CF000DD038FEF0E94DD0389830E945506898101
:100D00000F90DF91CF9108951F93CF93DF9300D081
:100D1000CDB7DEB76A8389830E94580689818F71B7
:100D200080620E94DD03182F6A81862F0E94DD03F6
:100D30000E945506812F0F900F90DF91CF911F9148
:100D40000895EF92FF920F931F93CF93DF9300D0FC
:100D50001F92CDB7DEB7162F4A837B8389830E940B
:100D6000580689818F7180620E94DD03082FE12E71
:100D70007B81F72E4A81140F1E1531F0F701819106
:100D80007F010E94DD03F8CF0E945506802F0F904F
:100D90000F900F90DF91CF911F910F91FF90EF90E7
:100DA0000895682F8091AE029091AF0289130C9440
:100DB000EB01089580E00E946D0681FD0BC0682F55
:100DC000626080E00E94840665E070E080E090E070
:100DD0000C947E0208950E94DA0680E00E946D065F
:100DE000682F616080E00E94840660E787E00E94CF
:100DF000840681E00E94D1068091B502882341F0EB
:100E00004091BA0265EB72E08AE00E94A10612C02E
:100E100082E00E946D06ECE9F0E0E49121E030E030
:100E200001C0220FEA95EAF72095622F682382E03D
:100E30000E9484068DE10E946D0681FD0C945B0684
:100E400008950F931F93CF938C0186E00E946D0647
:100E5000C82FC77D0230110531F4C0628BE990E0E4
:100E6000A0E0B0E00DC00130110529F085E590E06B
:100E7000A0E0B0E005C0C86081E490E0A0E0B0E090
:100E80008093BC029093BD02A093BE02B093BF02B8
:100E90006C2F86E00E94840686E00E946D0691E039
:100EA0008C1390E0892FCF911F910F9108956115B8
:100EB000710579F0FB0101900020E9F73197AF014E
:100EC000461B570BDC01ED91FC910280F381E02D74
:100ED000099480E090E008954F925F926F927F9224
:100EE000EF92FF920F931F93CF93DF93CDB7DEB7AF
:100EF000A1970FB6F894DEBF0FBECDBF7C01FA01FB
:100F0000CB0119A2223008F42AE08E010F5D1F4F99
:100F1000422E512C612C712CBF01A30192010E9421
:100F20002F0DF901CA01015011096A3014F4605DF6
:100F300001C0695CD8016C93232B242B252B61F70E
:100F4000B801C7010E945707A1960FB6F894DEBFFB
:100F50000FBECDBFDF91CF911F910F91FF90EF900A
:100F60007F906F905F904F900895CF93DF93CDB7B0
:100F7000DEB760970FB6F894DEBF0FBECDBF789492
:100F800084B5826084BD84B5816084BD85B582608E
:100F900085BD85B5816085BD80916E00816080933F
:100FA0006E001092810080918100826080938100A8
:100FB00080918100816080938100809180008160B8
:100FC000809380008091B10084608093B100809113
:100FD000B00081608093B00080917A00846080933B
:100FE0007A0080917A00826080937A0080917A0002
:100FF000816080937A0080917A00806880937A0083
:101000001092C1001092AA021092AB021092AC0290
:101010001092AD02109268021092690210926A0258
:1010200010926B0268EB7BE080E090E00E947E0211
:101030008BEB91E09093A9028093A8020E94400557
:101040000E948601609368027093690280936A022D
:1010500090936B0265E771E08091A8029091A902DC
:101060000E9457076AE070E080E090E00E947E02F4
:1010700081E080937C020E94400561E084E00E9450
:1010800037026091B20184E00E94EB0184EE93E0AC
:101090009093010180930001809169008C7F80937F
:1010A0006900E89A1092040110921D011092360115
:1010B0008091AE029091AF02891719F061E00E9411
:1010C00037028091AF029091AE02981719F061E05B
:1010D0000E9437021FB7F8948091B101811127C097
:1010E000E6EBF0E08491EAECF0E09491E82FF0E098
:1010F000EE0FFF1FEA57FF4FA591B491EC91E92342
:1011000021F461E08AE00E94EB0161E08AE00E9444
:1011100037028CB580618CBD8CB580648CBD61E07C
:101120008DE00E94370261E08BE00E9437028091DF
:10113000B1018F5F8093B1011FBF80E00E94D10693
:1011400081E00E943B0665E070E080E090E00E9454
:101150007E026CE080E00E9484066FE584E00E94DD
:10116000840682E090E00E942107882319F081E044
:101170008093B20286E00E946D0680E090E00E94BB
:1011800021070E94580680E50E94DD0383E70E9444
:10119000DD030E94550660E08DE10E94840660E058
:1011A0008CE10E94840660E787E00E9484066CE47C
:1011B00085E00E9484060E94580682EE0E94DD03AC
:1011C0000E9455060E945B060E94DA0680E00E949B
:1011D0006D06682F6E7F80E00E9484068DE10E947C
:1011E0006D06682F66608DE10E9484068CE10E9486
:1011F0006D06682F63608CE10E94840611E01093F5
:10120000B4028DE10E946D06682F64608DE10E943A
:1012100084068CE10E946D06682F6F638CE10E944A
:1012200084061093B40262E385E00E9484066FEFA7
:1012300084E00E94840681E090E00E94210786E01D
:101240000E946D06887F682F656086E00E94840694
:101250006FE381E00E94840680E00E946D06682FA3
:101260006C6080E00E94840682EE898710EF1A8706
:101270001B871C871D871E861F86188A4091BA020D
:10128000BE01675F7F4F8AE00E94A1064091BA02CB
:10129000BE01675F7F4F80E10E94A1066091B302AB
:1012A00081E10E94840681EE89831A831B831C835B
:1012B0001D831E821F821886E7E9F0E08491409129
:1012C000BA02BE016F5F7F4F0E94A106E1E9F0E024
:1012D00084916091B3020E94840682E00E946D06B0
:1012E000EDE9F0E0E49161E070E001C0660FEA959D
:1012F000EAF7682B82E00E9484060E94EB0684EFE6
:10130000882E99249394A12CB12C0E948601672BDE
:10131000682B692B41F40E948601623071058105BA
:10132000910508F40BC10E9486016093B701709388
:10133000B8018093B9019093BA01C090B301D090E5
:10134000B401E090B501F090B6016C157D058E05F5
:101350009F0540F46093B3017093B4018093B5018D
:101360009093B601C090B301D090B401E090B50164
:10137000F090B6019B01AC012C193D094E095F09A3
:1013800069017A013AEFC316D104E104F10408F4CB
:10139000D5C06093B3017093B4018093B50190936D
:1013A000B6018092740290927502A0927602B09279
:1013B0007702109278021092790210927A021092BB
:1013C0007B0280916C0290916D02A0916E02B091AF
:1013D0006F028093700290937102A0937202B09397
:1013E00073020E94860160936C0270936D02809379
:1013F0006E0290936F020E94860160936802709360
:10140000690280936A0290936B020E9486016B01CD
:101410007C0167E871E08091A8029091A9020E9486
:1014200057072AE041E050E060E070E08091A802B8
:101430009091A9020E946C076EE871E08091A80269
:101440009091A9020E9457072AE0B701A601809156
:10145000A8029091A9020E946C0760E971E0809156
:10146000A8029091A9020E94570780916C02909166
:101470006D02A0916E02B0916F02B701A601481BE8
:10148000590B6A0B7B0B2AE08091A8029091A9026C
:101490000E946C0760E971E08091A8029091A90216
:1014A0000E94570740916C0250916D0260916E024C
:1014B00070916F028091700290917102A0917202FE
:1014C000B0917302481B590B6A0B7B0B2AE0809189
:1014D000A8029091A9020E946C0762E971E08091D4
:1014E000A8029091A9020E9457070E948601AB01B1
:1014F000BC012AE08091A8029091A9020E946C0789
:10150000E090A802F090A90264E971E0C7010E948E
:10151000570764E871E0C7010E94570762E070E076
:1015200080E090E00E947E020E94860160936C023F
:1015300070936D0280936E0290936F020E94B802C6
:101540000E94E403C0900501D0900601E0900701DD
:10155000F0900801A7019601C701B6010E94640E30
:10156000882319F06BE971E01AC026013701E8946D
:1015700077F82FEF3FEF4FE75FE7C301B2010E941B
:10158000640E811111C02FEF3FEF4FE75FE7C301FA
:10159000B2010E940B0C18163CF46FE971E08BEB62
:1015A00091E00E94570789C02FEF3FEF4FE75FE4BC
:1015B000C701B6010E945F0E18161CF463EA71E0C1
:1015C000EECF2FEF3FEF4FE75FECC701B6010E9470
:1015D0000B0C87FDF3CF20E030E0A901C701B60175
:1015E0000E940B0C87FF0FC0E091BB01F091BC0182
:1015F0000190F081E02D6DE28BEB91E00995F7FA17
:10160000F094F7F8F0942AE037ED43EA5BE3C70182
:10161000B6010E94520D2B013C010E94300E6B015D
:101620007C010E94100C9B01AC01C301B2010E941D
:10163000510D2B013C012AE0B701A6018BEB91E093
:101640000E946C07E091BB01F091BC010190F08118
:10165000E02D6EE28BEB91E0099520E030E040E276
:1016600051E4C301B2010E94710C2B013C010E94A4
:10167000300E6B01E12CF12C2AE0B701A6018BEBB7
:1016800091E00E946C07C701B6010E94100C9B01FB
:10169000AC01C301B2010E94510D20E030E040E2F4
:1016A00051E40E94710C0E94300EAB0160E070E0CA
:1016B0002AE08BEB91E00E946C0764E871E08BEB11
:1016C00091E00E9457070E9457011FCE1092BE0161
:1016D0001092BD0188EE93E0A0E0B0E08093BF01DE
:1016E0009093C001A093C101B093C20183E591E042
:1016F0009093BC018093BB0185EC90E09093C8016E
:101700008093C70184EC90E09093CA018093C90153
:1017100080EC90E09093CC018093CB0181EC90E041
:101720009093CE018093CD0182EC90E09093D00114
:101730008093CF0186EC90E09093D2018093D10109
:101740001092D4011092D5011092D6011092D701B7
:1017500060E083E00E943702E3ECF0E0E491E09384
:101760005802EFEAF0E0E491F0E0EE0FFF1FEE55D3
:10177000FF4F8591949190935A0280935902109251
:1017800063021092650210926402E3E6F2E01292A4
:1017900082E0EB35F807D9F710926C0210926D02D7
:1017A00010926E0210926F021092700210927102EB
:1017B00010927202109273021092740210927502CB
:1017C00010927602109277021092780210927902AB
:1017D00010927A0210927B0289E08093AE028AE036
:1017E0008093AF021092B20280E28093B302109213
:1017F000B40285E08093BA0285E090E0A0E0B0E01A
:101800008093C0029093C102A093C202B093C3021E
:101810001092B50208950E944D0C08F481E00895DD
:10182000E89409C097FB3EF490958095709561957A
:101830007F4F8F4F9F4F9923A9F0F92F96E9BB2730
:101840009395F695879577956795B795F111F8CFAC
:10185000FAF4BB0F11F460FF1BC06F5F7F4F8F4F17
:101860009F4F16C0882311F096E911C0772321F00D
:101870009EE8872F762F05C0662371F096E8862FA5
:1018800070E060E02AF09A95660F771F881FDAF7FC
:10189000880F9695879597F90895990F0008550F29
:1018A000AA0BE0E8FEEF16161706E807F907C0F0E6
:1018B00012161306E407F50798F0621B730B840BEE
:1018C000950B39F40A2661F0232B242B252B21F4C8
:1018D00008950A2609F4A140A6958FEF811D811D68
:1018E00008950E94840C0C94F50C0E94E70C38F0CB
:1018F0000E94EE0C20F0952311F00C94DE0C0C9459
:10190000E40C11240C94290D0E94060D70F3959F90
:10191000C1F3950F50E0551F629FF001729FBB27E6
:10192000F00DB11D639FAA27F00DB11DAA1F649F82
:101930006627B00DA11D661F829F2227B00DA11D35
:10194000621F739FB00DA11D621F839FA00D611DBB
:10195000221F749F3327A00D611D231F849F600DDC
:10196000211D822F762F6A2F11249F5750409AF005
:10197000F1F088234AF0EE0FFF1FBB1F661F771F91
:10198000881F91505040A9F79E3F510580F00C945C
:10199000DE0C0C94290D5F3FE4F3983ED4F386955A
:1019A00077956795B795F795E7959F5FC1F7FE2BFC
:1019B000880F911D9695879597F9089597F99F67D8
:1019C00080E870E060E008959FEF80EC08950024C7
:1019D0000A941616170618060906089500240A9494
:1019E00012161306140605060895092E0394000C1A
:1019F00011F4882352F0BB0F40F4BF2B11F460FFA9
:101A000004C06F5F7F4F8F4F9F4F089557FD9058D1
:101A1000440F551F59F05F3F71F04795880F97FBB2
:101A2000991F61F09F3F79F087950895121613066C
:101A30001406551FF2CF4695F1DF08C0161617069B
:101A40001806991FF1CF86957105610508940895D0
:101A5000E894BB2766277727CB0197F90895A1E281
:101A60001A2EAA1BBB1BFD010DC0AA1FBB1FEE1F18
:101A7000FF1FA217B307E407F50720F0A21BB30B63
:101A8000E40BF50B661F771F881F991F1A9469F7DF
:101A900060957095809590959B01AC01BD01CF013B
:101AA00008955058BB27AA270E94690D0C94F50C85
:101AB0000E94E70C38F00E94EE0C20F039F49F3FB2
:101AC00019F426F40C94E40C0EF4E095E7FB0C9466
:101AD000DE0CE92F0E94060D58F3BA176207730750
:101AE0008407950720F079F4A6F50C94280D0EF4E0
:101AF000E0950B2EBA2FA02D0B01B90190010C011E
:101B0000CA01A0011124FF27591B99F0593F50F435
:101B1000503E68F11A16F040A22F232F342F44278D
:101B2000585FF3CF469537952795A795F040539585
:101B3000C9F77EF41F16BA0B620B730B840BBAF055
:101B40009150A1F0FF0FBB1F661F771F881FC2F7C0
:101B50000EC0BA0F621F731F841F48F487957795D4
:101B60006795B795F7959E3F08F0B0CF9395880F8E
:101B700008F09927EE0F9795879508950E94D20D4A
:101B80000C94F50C0E94EE0C58F00E94E70C40F00B
:101B900029F45F3F29F00C94DE0C51110C94290DAF
:101BA0000C94E40C0E94060D68F39923B1F35523BD
:101BB00091F3951B550BBB27AA2762177307840760
:101BC00038F09F5F5F4F220F331F441FAA1FA9F3F6
:101BD00035D00E2E3AF0E0E832D091505040E695E4
:101BE000001CCAF72BD0FE2F29D0660F771F881F45
:101BF000BB1F261737074807AB07B0E809F0BB0B38
:101C0000802DBF01FF2793585F4F3AF09E3F51054B
:101C100078F00C94DE0C0C94290D5F3FE4F3983EB1
:101C2000D4F3869577956795B795F7959F5FC9F734
:101C3000880F911D9695879597F90895E1E0660FB5
:101C4000771F881FBB1F621773078407BA0720F02E
:101C5000621B730B840BBA0BEE1F88F7E095089597
:101C60000E940E0D88F09F5798F0B92F9927B75111
:101C7000B0F0E1F0660F771F881F991F1AF0BA9530
:101C8000C9F714C0B13091F00E94280DB1E0089559
:101C90000C94280D672F782F8827B85F39F0B93F4B
:101CA000CCF3869577956795B395D9F73EF49095E3
:101CB0008095709561957F4F8F4F9F4F08950E943B
:101CC0004D0C08F48FEF08950E944D0C880B990B72
:101CD0000895052E97FB1EF400940E94800E57FD78
:101CE00007D00E942F0D07FC03D04EF40C94800EF9
:101CF00050954095309521953F4F4F4F5F4F089538
:101D000090958095709561957F4F8F4F9F4F089567
:101D1000EE0FFF1F0590F491E02D099481E090E013
:0A1D2000F8940C94930EF894FFCF92
:101D2A0092019201000000000031384232305F74A3
:101D3A00656D7028432900000000000000000000C3
:101D4A000000426174745F706F77285629000000A2
:101D5A00000000000000000000000053776974686A
:101D6A000000000000000000000000000000000069
:101D7A00000000EE001305B7009500A900350154D4
:101D8A006F6F20626967206E756D207061722E0018
:101D9A004461746100564D4450565F317C315F5640
:101DAA004D4450560D0A00564D4450455F003A3294
:101DBA003A007C005F564D445045006E616E0069E2
:081DCA006E66006F76660000F2
:107800000C94343C0C94513C0C94513C0C94513CE1
:107810000C94513C0C94513C0C94513C0C94513CB4
:107820000C94513C0C94513C0C94513C0C94513CA4
:107830000C94513C0C94513C0C94513C0C94513C94
:107840000C94513C0C94513C0C94513C0C94513C84
:107850000C94513C0C94513C0C94513C0C94513C74
:107860000C94513C0C94513C11241FBECFEFD8E036
:10787000DEBFCDBF11E0A0E0B1E0ECE9FFE702C060
:1078800005900D92A230B107D9F712E0A2E0B1E065
:1078900001C01D92AD30B107E1F70E942D3D0C945F
:1078A000CC3F0C94003C982F959595959595959582
:1078B000905D8F708A307CF0282F295A8091C0000B
:1078C00085FFFCCF9093C6008091C00085FFFCCF60
:1078D0002093C6000895282F205DF0CF982F809127
:1078E000C00085FFFCCF9093C6000895EF92FF92F1
:1078F0000F931F93EE24FF2487018091C00087FD22
:1079000017C00894E11CF11C011D111D81E4E8164B
:1079100082E4F8068FE0080780E0180770F3E09132
:107920000401F091050109958091C00087FFE9CF1E
:107930008091C6001F910F91FF90EF9008950E94D3
:10794000763C982F8091C00085FFFCCF9093C600B5
:1079500091362CF490330CF09053892F089597555D
:10796000892F08951F930E949F3C182F0E949F3CCF
:107970001295107F810F1F9108951F93182F882350
:1079800021F00E94763C1150E1F71F9108951F935A
:10799000182F0E94763C803249F0809103018F5F5E
:1079A000809303018530C1F01F9108958091C0003C
:1079B00085FFFCCF84E18093C6008091C00085FFE5
:1079C000FCCF1093C6008091C00085FFFCCF80E102
:1079D0008093C6001F910895E0910401F091050184
:1079E00009951F9108950E94763C803241F0809164
:1079F00003018F5F80930301853081F008958091AA
:107A0000C00085FFFCCF84E18093C6008091C00058
:107A100085FFFCCF80E18093C6000895E0910401CA
:107A2000F09105010995089540E951E08823A1F0FE
:107A30002D9A28EE33E0FA013197F1F721503040CA
:107A4000D1F72D9828EE33E0FA013197F1F7215064
:107A50003040D1F7815061F708953F924F925F9285
:107A60006F927F928F929F92AF92BF92CF92DF924E
:107A7000EF92FF920F931F93CF93DF93000080E16B
:107A80008093C4001092C50088E18093C10086E015
:107A90008093C2005098589A259A81E00E94143D24
:107AA00024E1F22E9EE1E92E85E9D82E0FE0C02ECA
:107AB00010E1B12EAA24A394B1E49B2EA6E58A2E50
:107AC000F2E57F2EE0E26E2E79E4572E63E5462E36
:107AD00050E5352E0E94763C8033B1F18133B9F107
:107AE000803409F46FC0813409F476C0823409F41B
:107AF00085C0853409F488C0803531F1823521F1A3
:107B0000813511F1853509F485C0863509F48DC0BC
:107B1000843609F496C0843709F403C1853709F423
:107B200072C1863709F466C0809103018F5F80932C
:107B30000301853079F6E0910401F0910501099582
:107B40000E94763C803351F60E94F33CC3CF0E94E2
:107B5000763C803249F78091C00085FFFCCFF092DF
:107B6000C6008091C00085FFFCCF9092C600809136
:107B7000C00085FFFCCF8092C6008091C00085FFC9
:107B8000FCCF7092C6008091C00085FFFCCF609250
:107B9000C6008091C00085FFFCCF5092C600809146
:107BA000C00085FFFCCF4092C6008091C00085FFD9
:107BB000FCCF3092C6008091C00085FFFCCFB09210
:107BC000C60088CF0E94763C863808F4BDCF0E945C
:107BD000763C0E94F33C7ECF0E94763C803809F4CC
:107BE0009CC0813809F40BC1823809F43CC1883942
:107BF00009F48FC080E00E94C73C6CCF84E10E94F2
:107C0000BD3C0E94F33C66CF85E00E94BD3C0E94D3
:107C1000F33C60CF0E94763C809306010E94763C44
:107C2000809307010E94F33C55CF0E94763C80333D
:107C300009F41DC183E00E94BD3C80E00E94C73C66
:107C400049CF0E94763C809309020E94763C809343
:107C5000080280910C028E7F80930C020E94763C79
:107C6000853409F415C18091080290910902892B8D
:107C700089F000E010E00E94763CF801E85FFE4FDA
:107C800080830F5F1F4F80910802909109020817AF
:107C9000190788F30E94763C803209F045CF809125
:107CA0000C0280FF01C16091060170910701660F0F
:107CB000771F7093070160930601A0910802B091AD
:107CC00009021097C9F0E8E0F1E09B01AD014E0F09
:107CD0005F1FF999FECF32BD21BD819180BDFA9A17
:107CE000F99A2F5F3F4FE417F50799F76A0F7B1F4B
:107CF00070930701609306018091C00085FFFCCF5F
:107D0000F092C6008091C00085FFFCCFB092C60003
:107D1000E1CE83E00E94C73CDDCE82E00E94C73CFA
:107D2000D9CE0E94763C809309020E94763C8093D3
:107D300008028091060190910701880F991F909386
:107D40000701809306010E94763C853409F4A6C0A1
:107D500080910C028E7F80930C020E94763C8032D0
:107D600009F0B8CE8091C00085FFFCCFF092C6002C
:107D7000609108027091090261157105B9F140E046
:107D800050E080910C02A82FA170B82FB27011C0E2
:107D9000BB2309F45CC0E0910601F0910701319624
:107DA000F0930701E09306014F5F5F4F46175707B7
:107DB000E8F4AA2369F3F999FECF209106013091E6
:107DC000070132BD21BDF89A90B58091C00085FFB2
:107DD000FCCF9093C6002F5F3F4F30930701209355
:107DE00006014F5F5F4F4617570718F38091C00099
:107DF00085FDE5CE8091C00085FFF8CFE0CE81E023
:107E00000E94C73C67CE0E94763C803209F08CCE3F
:107E10008091C00085FFFCCFF092C6008091C00029
:107E200085FFFCCFE092C6008091C00085FFFCCFAB
:107E3000D092C6008091C00085FFFCCFC092C600E2
:107E40008091C00085FFFCCFB092C60043CEE09188
:107E50000601F091070194918091C00085FFFCCF4D
:107E60009093C6009CCF80E10E94C73C33CE0E9415
:107E7000763C0E94763C182F0E94763C112309F430
:107E800083C0113009F484C08FE00E94C73C22CE29
:107E900080910C02816080930C02E5CE80910C02EF
:107EA000816080930C0259CF809107018823880F4D
:107EB000880B8A2180930B02809106019091070123
:107EC000880F991F90930701809306018091080203
:107ED00080FF09C080910802909109020196909359
:107EE000090280930802F894F999FECF1127E091D6
:107EF0000601F0910701C8E0D1E08091080290915D
:107F00000902103091F40091570001700130D9F34B
:107F100003E000935700E89500915700017001308D
:107F2000D9F301E100935700E89509901990009169
:107F3000570001700130D9F301E000935700E89534
:107F40001395103498F011270091570001700130FB
:107F5000D9F305E000935700E895009157000170B0
:107F60000130D9F301E100935700E895329602976A
:107F700009F0C7CF103011F00296E5CF112480919F
:107F8000C00085FFB9CEBCCE8EE10E94C73CA2CD19
:0C7F900085E90E94C73C9ECDF894FFCF0D
:027F9C00800063
:040000030000780081
:00000001FF