:100000000C946B000C9429030C9402030C94930041
:100010000C9493000C9493000C9493000C94930014
:100020000C9493000C9493000C9493000C94930004
:100030000C9493000C9493000C9493000C949300F4
:100040000C94B8020C9493000C94B9010C94930195
:100050000C9493000C9493000C9493000C949300D4
:100060000C9493000C9493000000000025002800DD
:100070002B0000000008000201000003040700003C
:1000800000000000000000000000240027002A00FB
:100090001112131415160A0B0C0D0E0F000102039A
:1000A00004050000000023002600290004040404C5
:1000B0000404040402020202020203030303030312
:1000C00001020408102040800102040810200102EF
:1000D00004081020600B11241FBECFEFD8E0DEBF54
:1000E000CDBF22E0A8EAB1E001C01D92A43CB20756
:1000F000E1F711E0A0E0B1E0EEE1FDE102C0059022
:100100000D92A83AB107D9F710E0CBE6D0E004C0D1
:100110002197FE010E94820ECA36D107C9F70E94BC
:10012000B1070C948D0E0C940000FC01918D828D12
:10013000981761F0828DDF01A80FB11D5D968C913B
:10014000928D9F5F9F73928F90E008958FEF9FEF46
:100150000895FC01918D828D981731F0828DE80F02
:10016000F11D858D90E008958FEF9FEF0895FC01BC
:10017000918D228D892F90E0805C9F4F821B910989
:100180008F73992708958BEB91E00E94B70021E0CF
:10019000892B09F420E0822F0895FC01848DDF0172
:1001A000A80FB11DA35ABF4F2C91848D90E00196EA
:1001B0008F739927848FA689B7892C93A089B189D9
:1001C0008C9180648C93938D848D981306C00288E3
:1001D000F389E02D80818F7D80830895EF92FF92D7
:1001E0000F931F93CF93DF93EC0181E0888F9B8D5A
:1001F0008C8D981305C0E889F989808185FD24C01C
:10020000F62E0B8D10E00F5F1F4F0F731127E02E9E
:100210008C8DE8120CC00FB607FCFACFE889F9897B
:10022000808185FFF5CFCE010E94CD00F1CF8B8D6F
:10023000FE01E80FF11DE35AFF4FF0820B8FEA89B0
:10024000FB898081806207C0EE89FF896083E8892D
:10025000F98980818064808381E090E0DF91CF9193
:100260001F910F91FF90EF900895CF93DF93EC01D2
:10027000888D8823C9F0EA89FB89808185FD05C0C6
:10028000A889B9898C9186FD0FC00FB607FCF5CF00
:10029000808185FFF2CFA889B9898C9185FFEDCF48
:1002A000CE010E94CD00E7CFDF91CF91089580E08D
:1002B00090E0892B29F00E94C30081110C9400006A
:1002C00008953FB7F8948091AD019091AE01A0914F
:1002D000AF01B091B00126B5A89B05C02F3F19F022
:1002E0000196A11DB11D3FBFBA2FA92F982F8827B6
:1002F000820F911DA11DB11DBC01CD0142E0660F11
:10030000771F881F991F4A95D1F708952FB7F89442
:100310006091A9017091AA018091AB019091AC010B
:100320002FBF089508951F920F920FB60F921124B8
:100330002F933F934F935F936F937F938F939F93ED
:10034000AF93BF93EF93FF938BEB91E00E94CD00AF
:10035000FF91EF91BF91AF919F918F917F916F919D
:100360005F914F913F912F910F900FBE0F901F9073
:1003700018951F920F920FB60F9211242F938F93FF
:100380009F93EF93FF93E091CB01F091CC0180819B
:10039000E091D101F091D20182FD12C09081809153
:1003A000D4018F5F8F732091D501821751F0E091B6
:1003B000D401F0E0E554FE4F958F8093D40101C045
:1003C0008081FF91EF919F918F912F910F900FBEA0
:1003D0000F901F90189590E0FC01EE58FF4F34915C
:1003E000FC01E054FF4F2491FC01E455FF4FE491E0
:1003F000EE2309F43BC0332339F1333091F038F464
:100400003130A9F0323001F584B58F7D12C037301C
:1004100091F03830A1F03430B9F4809180008F7DB4
:1004200003C0809180008F77809380000DC084B5D9
:100430008F7784BD09C08091B0008F7703C0809111
:10044000B0008F7D8093B000F0E0EE0FFF1FE85901
:10045000FF4FA591B4918FB7F894EC91611103C04F
:1004600020952E2301C02E2B2C938FBF0895CF9360
:10047000DF9390E0FC01E054FF4F2491FC01E45530
:10048000FF4F8491882361F190E0880F991FFC0150
:10049000EA57FF4FC591D491FC01E859FF4FA59150
:1004A000B491611109C09FB7F89488812095822387
:1004B0008883EC912E230BC0623061F49FB7F894CF
:1004C0003881822F809583238883EC912E2B2C9367
:1004D0009FBF06C08FB7F894E8812E2B28838FBF6B
:1004E000DF91CF9108958230910538F0880F991FE0
:1004F000880F991F05970197F1F708958F929F92A2
:10050000AF92BF92CF92DF92EF92FF926B017C018C
:100510000E9461014B015C01C114D104E104F104AA
:10052000F1F00E946101DC01CB0188199909AA0947
:10053000BB09883E9340A105B10570F321E0C21AC2
:10054000D108E108F10888EE880E83E0981EA11C0E
:10055000B11CC114D104E104F10419F7DDCFFF90FF
:10056000EF90DF90CF90BF90AF909F908F900895C5
:100570001F920F920FB60F9211242F933F938F93D8
:100580009F93AF93BF938091A9019091AA01A091ED
:10059000AB01B091AC013091A80123E0230F2D37BE
:1005A00020F40196A11DB11D05C026E8230F029677
:1005B000A11DB11D2093A8018093A9019093AA01C8
:1005C000A093AB01B093AC018091AD019091AE01CD
:1005D000A091AF01B091B0010196A11DB11D809312
:1005E000AD019093AE01A093AF01B093B001BF9164
:1005F000AF919F918F913F912F910F900FBE0F90D0
:100600001F9018951F920F920FB60F9211242F93DF
:100610003F934F935F936F937F938F939F93AF938A
:10062000BF93EF93FF93E0910201F09103010995CD
:10063000FF91EF91BF91AF919F918F917F916F91BA
:100640005F914F913F912F910F900FBE0F901F9090
:1006500018951F920F920FB60F9211242F933F936C
:100660004F935F936F937F938F939F93AF93BF93BA
:10067000EF93FF93E0910001F09101010995FF9143
:10068000EF91BF91AF919F918F917F916F915F910A
:100690004F913F912F910F900FBE0F901F90189583
:1006A0008EBD00000DB407FEFDCF8EB50895EF920C
:1006B000FF920F931F93CF93DF93CDB7DEB7E597EC
:1006C0000FB6F894DEBF0FBECDBF87E10E9469066A
:1006D00080FFABC02FC00E94510660E787E00E94F8
:1006E00080069CA98BA9823009F4CDC008F0C4C053
:1006F000813009F08EC160E070E080E490E411E0A8
:1007000019836A837B838C839D8389E1FE01319603
:10071000DE015A9601900D928A95E1F760E771E04B
:100720008BEB91E00E94530764E871E08BEB91E062
:100730000E94530780E00E94CD068091AE02909106
:10074000AF020E9473028DE10E94690681FF08C01A
:100750008091AE029091AF020E9473020E945706F0
:1007600080E00E946906682F6E7F80E00E9480060C
:1007700082E00E946906ECE9F0E0E49161E070E05B
:1007800001C0660FEA95EAF7682B82E00E948006B6
:100790001091A502012F1A3108F009E18091A602FB
:1007A000811102C0101B01C010E00E94540680EAB3
:1007B0000E9450037E01FAE1EF0EF11C015030F06F
:1007C000F70181917F010E945003F8CF112329F096
:1007D00080E00E9450031150F9CF0E94510681E041
:1007E0000E94CD060E9454068FEF0E9450038DABED
:1007F0000E9451068DA98073A9F380E00E94CD0666
:1008000060E787E00E94800684FD0E945706E59617
:100810000FB6F894DEBF0FBECDBFDF91CF911F9111
:100820000F91FF90EF900C94E7061091A502123003
:1008300008F4F3C002E08091A602811102C0101BEF
:1008400001C010E00E94540681E60E9450037E0120
:1008500083E3E80EF11C015038F08FEF0E94500343
:10086000F70181937F01F7CF112309F434CF8FEF84
:100870000E9450031150F8CF833009F48FC08430A8
:1008800009F49EC0C6C011E0109304010E94000646
:100890008CEC0E94A00584E40E94A00568EE73E041
:1008A00080E090E00E947E020E9400068CEC0E9494
:1008B000A0058EEB0E94A0050E946405082F0E94EF
:1008C0006405682F70E0762F6627600F711D072E74
:1008D000000C880B990B0E940C0C20E030E040E8E3
:1008E0005DE30E946B0C6093050170930601809399
:1008F00007019093080110931D0180E480937C0010
:1009000080917C008E6080937C008AEF90E00E9452
:10091000730280917A00806480937A0080917A00DB
:1009200086FDFCCF209178003091790021153105AA
:1009300069F040E050E064EB7BE281E190E00E94EE
:10094000630ECA01B9010E940C0C04C060E070E0A3
:1009500080E89FEB20E030E04AE754E40E94B80DC5
:1009600060931E0170931F018093200190932101D9
:1009700081E0809336016091B20170E080E090E008
:100980000E940A0C609337017093380180933901FB
:1009900090933A0160E070E0CB01B1CE6091B2017A
:1009A00081E0162F18271093B201612F84E00E9476
:1009B000EB01612F70E080E090E00E940A0C9FCE76
:1009C000892F90E08330910554F084E1EFE5F1E068
:1009D000DE01169601900D928A95E1F71AC029E181
:1009E000289FF001299FF00D1124DF01AC5FBE4F5D
:1009F0001C9111966D917D918D919C911497E75F5B
:100A0000FE4F24E1DE01169601900D922A95E1F742
:100A100077CE60E070E0CB0173CE012F0CCFCF9288
:100A2000DF92EF92FF920F931F93CF93DF936C01AE
:100A30007A018B01C0E0D0E0CE15DF0589F0D80146
:100A40006D918D01D601ED91FC910190F081E02D29
:100A5000C6010995892B11F47E0102C02196ECCFC5
:100A6000C701DF91CF911F910F91FF90EF90DF9021
:100A7000CF9008950E94880EEBEBF1E0A089B18938
:100A800082E08C93A485B5851C92A685B7858FECF2
:100A90008C93108EA489B58986E08C93A289B38942
:100AA0008C9180618C93A289B3898C9188608C939E
:100AB000A289B3898C9180688C930288F389E02D98
:100AC00080818F7D80830895EF92FF920F931F9313
:100AD000CF93DF9348E050E031E080E097E0E92EEB
:100AE000F12CC3E2D0E00FEC10E09091B602E0915F
:100AF000B702F091B802F8942181292B21836281F9
:100B0000292F209562236283D7011197F1F7618124
:100B100026232183DE011197F1F720817894F801D3
:100B20003197F1F7922309F0832B330F415051098C
:100B3000E1F6DF91CF911F910F91FF90EF90089513
:100B4000CF92DF92EF92FF920F931F93CF93DF9399
:100B500028E030E041E06FEF70E09FE0C92ED12C3B
:100B6000C3E2D0E007ED10E09091B602E091B70249
:100B7000F091B802592F5095F42EF82281F0F89494
:100B8000F2805F2152835181592B5183DE011197ED
:100B9000F1F75281952B92837894F8010FC0F89465
:100BA000F2805F2152835181592B5183DB011197D0
:100BB000F1F75281952B92837894F6013197F1F7F2
:100BC000440F2150310981F6F894E091B702F09179
:100BD000B80291818091B602809598239183E0912B
:100BE000B702F091B8029281892382837894DF91D1
:100BF000CF911F910F91FF90EF90DF90CF900895CC
:100C00009091B602E091B702F091B802F894818118
:100C1000292F20958223818378948DE743E050E04B
:100C2000815021F1DA011197F1F730813923C1F3B5
:100C3000F8948281822382838181892B81837894B5
:100C4000ABE7B7E01197F1F7F8948181282321836E
:100C5000A3E1B1E01197F1F78081982381E009F0D9
:100C600080E07894E3E6F6E03197F1F70895CF93CA
:100C7000DF939CB59F7D9CBD9CB5937F9CBD9CB52F
:100C80009C7F9CBD9DB591609DBDC0EAD2E0682F60
:100C900089810E94EB018A899B89DF91CF910C9415
:100CA000730281E00C94370680E00C943706CF93F2
:100CB000DF931F92CDB7DEB70E94540681EE0E94EB
:100CC000500389830E94510689810F90DF91CF9153
:100CD0000895CF93DF931F92CDB7DEB789830E942B
:100CE000540689818F710E9450038FEF0E94500338
:100CF00089830E94510689810F90DF91CF910895D9
:100D00001F93CF93DF9300D0CDB7DEB76A8389837B
:100D10000E94540689818F7180620E945003182FAF
:100D20006A81862F0E9450030E945106812F0F90E6
:100D30000F90DF91CF911F910895EF92FF920F9343
:100D40001F93CF93DF9300D01F92CDB7DEB7162F3E
:100D50004A837B8389830E94540689818F718062D4
:100D60000E945003082FE12E7B81F72E4A81140F39
:100D70001E1531F0F70181917F010E945003F8CFD9
:100D80000E945106802F0F900F900F90DF91CF910E
:100D90001F910F91FF90EF900895682F8091A0020E
:100DA0009091A10289130C94EB01089580E00E94B8
:100DB000690681FD0BC0682F626080E00E9480069A
:100DC00065E070E080E090E00C947E0208950E945F
:100DD000D60680E00E946906682F616080E00E946C
:100DE000800660E787E00E94800681E00E94CD06D1
:100DF0008091A702882341F04091AC0267EA72E03B
:100E00008AE00E949D0612C082E00E946906ECE919
:100E1000F0E0E49121E030E001C0220FEA95EAF72A
:100E20002095622F682382E00E9480068DE10E9457
:100E3000690681FD0C94570608950F931F93CF9375
:100E40008C0186E00E946906C82FC77D023011051B
:100E500031F4C0628BE990E0A0E0B0E00DC0013059
:100E6000110529F085E590E0A0E0B0E005C0C8607C
:100E700081E490E0A0E0B0E08093AE029093AF02F6
:100E8000A093B002B093B1026C2F86E00E9480065E
:100E900086E00E94690691E08C1390E0892FCF9143
:100EA0001F910F9108956115710579F0FB01019073
:100EB0000020E9F73197AF01461B570BDC01ED919C
:100EC000FC910280F381E02D099480E090E0089588
:100ED0004F925F926F927F92EF92FF920F931F93C8
:100EE000CF93DF93CDB7DEB7A1970FB6F894DEBFEF
:100EF0000FBECDBF7C01FA01CB0119A2223008F44C
:100F00002AE08E010F5D1F4F422E512C612C712C57
:100F1000BF01A30192010E94290DF901CA010150EC
:100F200011096A3014F4605D01C0695CD8016C93EA
:100F3000232B242B252B61F7B801C7010E945307EF
:100F4000A1960FB6F894DEBF0FBECDBFDF91CF9153
:100F50001F910F91FF90EF907F906F905F904F9057
:100F60000895CF93DF93CDB7DEB760970FB6F894AF
:100F7000DEBF0FBECDBF789484B5826084BD84B5DA
:100F8000816084BD85B5826085BD85B5816085BD84
:100F900080916E00816080936E001092810080913C
:100FA00081008260809381008091810081608093C4
:100FB0008100809180008160809380008091B100E9
:100FC00084608093B1008091B00081608093B00014
:100FD00080917A00846080937A0080917A008260A8
:100FE00080937A0080917A00816080937A0080916A
:100FF0007A00806880937A001092C10010929C025F
:1010000010929D0210929E0210929F0210925A021C
:1010100010925B0210925C0210925D0268EB7BE022
:1010200080E090E00E947E028BEB91E090939B0227
:1010300080939A020E943C050E94860160935A02A6
:1010400070935B0280935C0290935D0265E771E0B0
:1010500080919A0290919B020E9453076AE070E08F
:1010600080E090E00E947E0281E080936E020E9408
:101070003C0561E084E00E9437026091B20184E0A7
:101080000E94EB0187E593E09093010180930001BA
:10109000809169008C7F80936900E89A1092040126
:1010A00010921D01109236018091A0029091A10230
:1010B000891719F061E00E9437028091A102909196
:1010C000A002981719F061E00E9437021FB7F89448
:1010D0008091B101811127C0E6EBF0E08491EAEC48
:1010E000F0E09491E82FF0E0EE0FFF1FEA57FF4F7A
:1010F000A591B491EC91E92321F461E08AE00E948A
:10110000EB0161E08AE00E9437028CB580618CBD02
:101110008CB580648CBD61E08DE00E94370261E097
:101120008BE00E9437028091B1018F5F8093B10103
:101130001FBF80E00E94CD0681E00E94370665E077
:1011400070E080E090E00E947E026CE080E00E940F
:1011500080066FE584E00E94800682E090E00E94B5
:101160001D07882319F081E08093A40286E00E9485
:10117000690680E090E00E941D070E94540680E509
:101180000E94500383E70E9450030E94510660E0D2
:101190008DE10E94800660E08CE10E94800660E79D
:1011A00087E00E9480066CE485E00E9480060E9431
:1011B000540682EE0E9450030E9451060E94570678
:1011C0000E94D60680E00E946906682F6E7F80E04C
:1011D0000E9480068DE10E946906682F66608DE19D
:1011E0000E9480068CE10E946906682F63608CE192
:1011F0000E94800611E01093A6028DE10E9469060C
:10120000682F64608DE10E9480068CE10E9469066F
:10121000682F6F638CE10E9480061093A60262E340
:1012200085E00E9480066FEF84E00E94800681E0E6
:1012300090E00E941D0786E00E946906887F682F63
:10124000656086E00E9480066FE381E00E94800670
:1012500080E00E946906682F6C6080E00E94800632
:1012600082EE898710EF1A871B871C871D871E86D1
:101270001F86188A4091AC02BE01675F7F4F8AE0EB
:101280000E949D064091AC02BE01675F7F4F80E1E6
:101290000E949D066091A50281E10E94800681EE78
:1012A00089831A831B831C831D831E821F821886D9
:1012B000E7E9F0E084914091AC02BE016F5F7F4F9F
:1012C0000E949D06E1E9F0E084916091A5020E94F0
:1012D000800682E00E946906EDE9F0E0E49161E0B9
:1012E00070E001C0660FEA95EAF7682B82E00E9481
:1012F00080060E94E70684EF882E99249394A12CFF
:10130000B12C0E948601672B682B692B41F40E9447
:101310008601623071058105910508F40BC10E94B8
:1013200086016093B7017093B8018093B9019093DF
:10133000BA01C090B301D090B401E090B501F09033
:10134000B6016C157D058E059F0540F46093B301D1
:101350007093B4018093B5019093B601C090B3012E
:10136000D090B401E090B501F090B6019B01AC01C2
:101370002C193D094E095F0969017A013AEFC3163C
:10138000D104E104F10408F4D5C06093B301709373
:10139000B4018093B5019093B60180926602909259
:1013A0006702A0926802B092690210926A021092DB
:1013B0006B0210926C0210926D0280915E0290910D
:1013C0005F02A0916002B0916102809362029093EB
:1013D0006302A0936402B09365020E948601609349
:1013E0005E0270935F0280936002909361020E949C
:1013F000860160935A0270935B0280935C02909323
:101400005D020E9486016B017C0167E871E08091BA
:101410009A0290919B020E9453072AE041E050E01B
:1014200060E070E080919A0290919B020E946807B0
:101430006EE871E080919A0290919B020E9453079E
:101440002AE0B701A60180919A0290919B020E9426
:10145000680760E971E080919A0290919B020E9476
:10146000530780915E0290915F02A0916002B0915B
:101470006102B701A601481B590B6A0B7B0B2AE0DE
:1014800080919A0290919B020E94680760E971E046
:1014900080919A0290919B020E94530740915E02B4
:1014A00050915F02609160027091610280916202CE
:1014B00090916302A0916402B0916502481B590BA0
:1014C0006A0B7B0B2AE080919A0290919B020E940A
:1014D000680762E971E080919A0290919B020E94F4
:1014E00053070E948601AB01BC012AE080919A0259
:1014F00090919B020E946807E0909A02F0909B02F4
:1015000064E971E0C7010E94530764E871E0C70114
:101510000E94530762E070E080E090E00E947E024B
:101520000E94860160935E0270935F028093600266
:10153000909361020E945703C0900501D09006016C
:10154000E0900701F0900801A7019601C701B601DC
:101550000E945E0E882319F06BE971E01AC0260123
:101560003701E89477F82FEF3FEF4FE75FE7C301CC
:10157000B2010E945E0E811111C02FEF3FEF4FE7C5
:101580005FE7C301B2010E94050C18163CF46FE935
:1015900071E08BEB91E00E94530789C02FEF3FEF82
:1015A0004FE75FE4C701B6010E94590E18161CF4FC
:1015B00063EA71E0EECF2FEF3FEF4FE75FECC7013B
:1015C000B6010E94050C87FDF3CF20E030E0A901B1
:1015D000C701B6010E94050C87FF0FC0E091BB0157
:1015E000F091BC010190F081E02D6DE28BEB91E078
:1015F0000995F7FAF094F7F8F0942AE037ED43EA0A
:101600005BE3C701B6010E944C0D2B013C010E9417
:101610002A0E6B017C010E940A0C9B01AC01C301E4
:10162000B2010E944B0D2B013C012AE0B701A6013B
:101630008BEB91E00E946807E091BB01F091BC0147
:101640000190F081E02D6EE28BEB91E0099520E0B6
:1016500030E040E251E4C301B2010E946B0C2B0167
:101660003C010E942A0E6B01E12CF12C2AE0B7010B
:10167000A6018BEB91E00E946807C701B6010E94AA
:101680000A0C9B01AC01C301B2010E944B0D20E08A
:1016900030E040E251E40E946B0C0E942A0EAB0144
:1016A00060E070E02AE08BEB91E00E94680764E85C
:1016B00071E08BEB91E00E9453070E94570121CE0D
:1016C0001092BE011092BD0188EE93E0A0E0B0E060
:1016D0008093BF019093C001A093C101B093C20158
:1016E00083E591E09093BC018093BB0185EC90E091
:1016F0009093C8018093C70184EC90E09093CA0155
:101700008093C90180EC90E09093CC018093CB0151
:1017100081EC90E09093CE018093CD0182EC90E03B
:101720009093D0018093CF0186EC90E09093D2010A
:101730008093D1011092D4011092D5011092D6015C
:101740001092D70110925E0210925F021092600216
:10175000109261021092620210926302109264026F
:10176000109265021092660210926702109268024F
:101770001092690210926A0210926B0210926C022F
:1017800010926D0260E083E00E943702E3ECF0E02B
:10179000E491E093B602EFEAF0E0E491F0E0EE0FBE
:1017A000FF1FEE55FF4F859194919093B80280935F
:1017B000B7021092C1021092C3021092C202E1EC71
:1017C000F2E0129282E0E93BF807D9F788E08093D3
:1017D000A00287E08093A1021092A40280E280938D
:1017E000A5021092A60285E08093AC0285E090E00D
:1017F000A0E0B0E08093B2029093B302A093B40251
:10180000B093B5021092A70208950E94470C08F405
:1018100081E00895E89409C097FB3EF49095809587
:10182000709561957F4F8F4F9F4F9923A9F0F92FA6
:1018300096E9BB279395F695879577956795B79524
:10184000F111F8CFFAF4BB0F11F460FF1BC06F5F0A
:101850007F4F8F4F9F4F16C0882311F096E911C01C
:10186000772321F09EE8872F762F05C0662371F03D
:1018700096E8862F70E060E02AF09A95660F771F51
:10188000881FDAF7880F9695879597F90895990F2D
:101890000008550FAA0BE0E8FEEF16161706E8073A
:1018A000F907C0F012161306E407F50798F0621B5B
:1018B000730B840B950B39F40A2661F0232B242B30
:1018C000252B21F408950A2609F4A140A6958FEF4F
:1018D000811D811D08950E947E0C0C94EF0C0E94C6
:1018E000E10C38F00E94E80C20F0952311F00C94E4
:1018F000D80C0C94DE0C11240C94230D0E94000DC6
:1019000070F3959FC1F3950F50E0551F629FF00152
:10191000729FBB27F00DB11D639FAA27F00DB11D6B
:10192000AA1F649F6627B00DA11D661F829F2227F4
:10193000B00DA11D621F739FB00DA11D621F839F7B
:10194000A00D611D221F749F3327A00D611D231F51
:10195000849F600D211D822F762F6A2F11249F579F
:1019600050409AF0F1F088234AF0EE0FFF1FBB1FA2
:10197000661F771F881F91505040A9F79E3F510561
:1019800080F00C94D80C0C94230D5F3FE4F3983E48
:10199000D4F3869577956795B795F795E7959F5F0B
:1019A000C1F7FE2B880F911D9695879597F908959D
:1019B00097F99F6780E870E060E008959FEF80EC02
:1019C000089500240A9416161706180609060895A5
:1019D00000240A9412161306140605060895092E0B
:1019E0000394000C11F4882352F0BB0F40F4BF2B7A
:1019F00011F460FF04C06F5F7F4F8F4F9F4F0895BA
:101A000057FD9058440F551F59F05F3F71F04795AF
:101A1000880F97FB991F61F09F3F79F08795089594
:101A2000121613061406551FF2CF4695F1DF08C0B3
:101A3000161617061806991FF1CF869571056105D0
:101A400008940895E894BB2766277727CB0197F978
:101A50000895A1E21A2EAA1BBB1BFD010DC0AA1FEF
:101A6000BB1FEE1FFF1FA217B307E407F50720F007
:101A7000A21BB30BE40BF50B661F771F881F991F82
:101A80001A9469F760957095809590959B01AC01CB
:101A9000BD01CF0108955058BB27AA270E94630DAE
:101AA0000C94EF0C0E94E10C38F00E94E80C20F03E
:101AB00039F49F3F19F426F40C94DE0C0EF4E095F3
:101AC000E7FB0C94D80CE92F0E94000D58F3BA17CD
:101AD000620773078407950720F079F4A6F50C9444
:101AE000220D0EF4E0950B2EBA2FA02D0B01B9019B
:101AF00090010C01CA01A0011124FF27591B99F084
:101B0000593F50F4503E68F11A16F040A22F232F8F
:101B1000342F4427585FF3CF469537952795A795DF
:101B2000F0405395C9F77EF41F16BA0B620B730B86
:101B3000840BBAF09150A1F0FF0FBB1F661F771FF7
:101B4000881FC2F70EC0BA0F621F731F841F48F4AC
:101B5000879577956795B795F7959E3F08F0B0CF35
:101B60009395880F08F09927EE0F9795879508951C
:101B70000E94CC0D0C94EF0C0E94E80C58F00E94CF
:101B8000E10C40F029F45F3F29F00C94D80C51117E
:101B90000C94230D0C94DE0C0E94000D68F3992325
:101BA000B1F3552391F3951B550BBB27AA27621759
:101BB0007307840738F09F5F5F4F220F331F441F66
:101BC000AA1FA9F335D00E2E3AF0E0E832D091509A
:101BD0005040E695001CCAF72BD0FE2F29D0660F87
:101BE000771F881FBB1F261737074807AB07B0E8CA
:101BF00009F0BB0B802DBF01FF2793585F4F3AF0D0
:101C00009E3F510578F00C94D80C0C94230D5F3F47
:101C1000E4F3983ED4F3869577956795B795F79555
:101C20009F5FC9F7880F911D9695879597F908953D
:101C3000E1E0660F771F881FBB1F621773078407D9
:101C4000BA0720F0621B730B840BBA0BEE1F88F7E8
:101C5000E09508950E94080D88F09F5798F0B92FDD
:101C60009927B751B0F0E1F0660F771F881F991FD1
:101C70001AF0BA95C9F714C0B13091F00E94220D44
:101C8000B1E008950C94220D672F782F8827B85F54
:101C900039F0B93FCCF3869577956795B395D9F729
:101CA0003EF490958095709561957F4F8F4F9F4F33
:101CB00008950E94470C08F48FEF08950E94470C86
:101CC000880B990B0895052E97FB1EF400940E9433
:101CD0007A0E57FD07D00E94290D07FC03D04EF461
:101CE0000C947A0E50954095309521953F4F4F4F6B
:101CF0005F4F089590958095709561957F4F8F4FB8
:101D00009F4F0895EE0FFF1F0590F491E02D099469
:0E1D100081E090E0F8940C948D0EF894FFCFD3
:101D1E0092019201000000000031384232305F74AF
:101D2E00656D7028432900000000000000000000CF
:101D3E000000426174745F706F77285629000000AE
:101D4E000000000000000000000000537769746876
:101D5E000000000000000000000000000000000075
:101D6E00000000EE000F05B7009500A900350154E4
:101D7E006F6F20626967206E756D207061722E0024
:101D8E004461746100564D4450565F317C315F564C
:101D9E004D4450560D0A00564D4450455F003A32A0
:101DAE003A007C005F564D445045006E616E0069EE
:081DBE006E66006F76660000FE
:00000001FF
