:100000000C946B000C94AA030C9483030C9493003F
:100010000C9493000C9493000C9493000C94930014
:100020000C9493000C9493000C9493000C94930004
:100030000C9493000C9493000C9493000C949300F4
:100040000C9439030C9493000C94AD010C9487012B
:100050000C9493000C9493000C9493000C949300D4
:100060000C9493000C9493000000000025002800DD
:100070002B0000000008000201000003040700003C
:1000800000000000000000000000240027002A00FB
:100090001112131415160A0B0C0D0E0F000102039A
:1000A00004050000000023002600290004040404C5
:1000B0000404040402020202020203030303030312
:1000C00001020408102040800102040810200102EF
:1000D00004081020440A11241FBECFEFD8E0DEBF71
:1000E000CDBF22E0A4E9B1E001C01D92A83AB20759
:1000F000E1F711E0A0E0B1E0E6EEFAE102C0059020
:100100000D92A439B107D9F710E0CBE6D0E004C0D6
:100110002197FE010E94660DCA36D107C9F70E94D9
:10012000A9070C94710D0C940000FC01918D828D37
:10013000981761F0828DDF01A80FB11D5D968C913B
:10014000928D9F5F9F73928F90E008958FEF9FEF46
:100150000895FC01918D828D981731F0828DE80F02
:10016000F11D858D90E008958FEF9FEF0895FC01BC
:10017000918D228D892F90E0805C9F4F821B910989
:100180008F73992708958FE991E00E94B70021E0CD
:10019000892B09F420E0822F0895FC01848DDF0172
:1001A000A80FB11DA35ABF4F2C91848D90E00196EA
:1001B0008F739927848FA689B7892C93A089B189D9
:1001C0008C9180648C93938D848D981306C00288E3
:1001D000F389E02D80818F7D80830895EF92FF92D7
:1001E0000F931F93CF93DF93EC0181E0888F9B8D5A
:1001F0008C8D981305C0E889F989808185FD24C01C
:10020000F62E0B8D10E00F5F1F4F0F731127E02E9E
:100210008C8DE8120CC00FB607FCFACFE889F9897B
:10022000808185FFF5CFCE010E94CD00F1CF8B8D6F
:10023000FE01E80FF11DE35AFF4FF0820B8FEA89B0
:10024000FB898081806207C0EE89FF896083E8892D
:10025000F98980818064808381E090E0DF91CF9193
:100260001F910F91FF90EF900895CF93DF93EC01D2
:10027000888D8823C9F0EA89FB89808185FD05C0C6
:10028000A889B9898C9186FD0FC00FB607FCF5CF00
:10029000808185FFF2CFA889B9898C9185FFEDCF48
:1002A000CE010E94CD00E7CFDF91CF91089580E08D
:1002B00090E0892B29F00E94C30081110C9400006A
:1002C00008953FB7F8948091950190919601A0917F
:1002D0009701B091980126B5A89B05C02F3F19F052
:1002E0000196A11DB11D3FBFBA2FA92F982F8827B6
:1002F000820F911DA11DB11DBC01CD0142E0660F11
:10030000771F881F991F4A95D1F7089508951F9266
:100310000F920FB60F9211242F933F934F935F9339
:100320006F937F938F939F93AF93BF93EF93FF93BD
:100330008FE991E00E94CD00FF91EF91BF91AF91C5
:100340009F918F917F916F915F914F913F912F91ED
:100350000F900FBE0F901F9018951F920F920FB61F
:100360000F9211242F938F939F93EF93FF93E0911C
:10037000AF01F091B0018081E091B501F091B6013B
:1003800082FD12C090818091B8018F5F8F732091A0
:10039000B901821751F0E091B801F0E0E156FE4F4B
:1003A000958F8093B80101C08081FF91EF919F915B
:1003B0008F912F910F900FBE0F901F90189590E086
:1003C000FC01EE58FF4F3491FC01E054FF4F2491A3
:1003D000FC01E455FF4FE491EE2309F43BC03323C5
:1003E00039F1333091F038F43130A9F0323001F581
:1003F00084B58F7D12C0373091F03830A1F03430A1
:10040000B9F4809180008F7D03C0809180008F7748
:10041000809380000DC084B58F7784BD09C0809122
:10042000B0008F7703C08091B0008F7D8093B000C3
:10043000F0E0EE0FFF1FE859FF4FA591B4918FB781
:10044000F894EC91611103C020952E2301C02E2B4E
:100450002C938FBF0895CF93DF9390E0FC01E0547D
:10046000FF4F2491FC01E455FF4F8491882361F1F3
:1004700090E0880F991FFC01EA57FF4FC591D49176
:10048000FC01E859FF4FA591B491611109C09FB7D4
:10049000F8948881209582238883EC912E230BC0C9
:1004A000623061F49FB7F8943881822F809583235E
:1004B0008883EC912E2B2C939FBF06C08FB7F894A6
:1004C000E8812E2B28838FBFDF91CF910895823052
:1004D000910538F0880F991F880F991F059701978C
:1004E000F1F708958F929F92AF92BF92CF92DF92D1
:1004F000EF92FF926B017C010E9461014B015C0154
:10050000C114D104E104F104F1F00E946101DC01A5
:10051000CB0188199909AA09BB09883E9340A10516
:10052000B10570F321E0C21AD108E108F10888EEA4
:10053000880E83E0981EA11CB11CC114D104E104F3
:10054000F10419F7DDCFFF90EF90DF90CF90BF90CF
:10055000AF909F908F900895CF93DF93C1E0C093A9
:1005600004010E94F8058CEC0E94980584E40E9426
:10057000980568EE73E080E090E00E9472020E94AD
:10058000F8058CEC0E9498058EEB0E9498050E945D
:100590005C05D82F0E945C05682F70E0762F6627D7
:1005A0006D0F711D072E000C880B990B0E94F00A2D
:1005B00020E030E040E85DE30E944F0B60930501CE
:1005C000709306018093070190930801C0931D0169
:1005D00080E480937C0080917C008E6080937C001E
:1005E0008AEF90E00E94670280917A008064809395
:1005F0007A0080917A0086FDFCCF209178003091BE
:1006000079002115310569F040E050E064EB7BE2B0
:1006100081E190E00E94470DCA01B9010E94F00AF1
:1006200004C060E070E080E89FEB20E030E04AE743
:1006300054E40E949C0C60931E0170931F018093F0
:1006400020019093210181E08093360160919E0109
:1006500070E080E090E00E94EE0A609337017093B2
:1006600038018093390190933A0181E0DF91CF9175
:1006700008951F920F920FB60F9211242F933F935C
:100680008F939F93AF93BF938091990190919A011B
:10069000A0919B01B0919C013091940123E0230F24
:1006A0002D3720F40196A11DB11D05C026E8230FAA
:1006B0000296A11DB11D20939401809399019093FE
:1006C0009A01A0939B01B0939C0180919501909118
:1006D0009601A0919701B09198010196A11DB11DBD
:1006E0008093950190939601A0939701B093980100
:1006F000BF91AF919F918F913F912F910F900FBE1E
:100700000F901F9018951F920F920FB60F92112401
:100710002F933F934F935F936F937F938F939F9309
:10072000AF93BF93EF93FF93E0910201F091030128
:100730000995FF91EF91BF91AF919F918F917F911B
:100740006F915F914F913F912F910F900FBE0F903E
:100750001F9018951F920F920FB60F9211242F938E
:100760003F934F935F936F937F938F939F93AF9339
:10077000BF93EF93FF93E0910001F0910101099580
:10078000FF91EF91BF91AF919F918F917F916F9169
:100790005F914F913F912F910F900FBE0F901F903F
:1007A00018958EBD00000DB407FEFDCF8EB50895DF
:1007B000EF92FF920F931F93CF93DF93CDB7DEB7E6
:1007C000E8970FB6F894DEBF0FBECDBF87E10E9459
:1007D000610680FFABC02FC00E94490660E787E03A
:1007E0000E9478069FA98EA9823009F4CBC008F038
:1007F000C4C0813009F005C160E070E080E490E49D
:1008000011E01A836B837C838D839E838AE1FE01D2
:100810003196DE015B9601900D928A95E1F760E7D3
:1008200071E08FE991E00E944B0764E871E08FE985
:1008300091E00E944B0780E00E94C5068091A002D3
:100840009091A1020E9467028DE10E94610681FFE2
:1008500008C08091A0029091A1020E9467020E94AC
:100860004F0680E00E946106682F6E7F80E00E9444
:10087000780682E00E946106ECE9F0E0E49161E034
:1008800070E001C0660FEA95EAF7682B82E00E94EB
:10089000780610919702012F1B3108F00AE1809130
:1008A0009802811102C0101B01C010E00E944C068A
:1008B00080EA0E94D1037E01FBE1EF0EF11C0150A2
:1008C00030F0F70181917F010E94D103F8CF11230D
:1008D00029F080E00E94D1031150F9CF0E9449060F
:1008E00081E00E94C5060E944C068FEF0E94D10352
:1008F00088AF0E94490688AD8073A9F380E00E940A
:10090000C50660E787E00E94780684FD0E944F06D6
:10091000E8960FB6F894DEBF0FBECDBFDF91CF9142
:100920001F910F91FF90EF900C94DF0610919702AA
:10093000133008F46AC003E080919802811102C06C
:10094000101B01C010E00E944C0681E60E94D103FA
:100950007E0185E3E80EF11C015038F08FEF0E9414
:10096000D103F70181937F01F7CF112309F434CF2D
:100970008FEF0E94D1031150F8CF833039F08430CB
:10098000B9F03FC00E94AC02182F3BC060919E019D
:1009900081E0162F182710939E01612F84E00E949A
:1009A000DF01612F70E080E090E00E94EE0A28CF26
:1009B000892F90E08330910554F084E1EFE5F1E078
:1009C000DE01179601900D928A95E1F71AC029E190
:1009D000289FF001299FF00D1124DF01AC5FBE4F6D
:1009E0001C9111966D917D918D919C911497E75F6B
:1009F000FE4F24E1DE01179601900D922A95E1F752
:100A000000CF60E070E0CB01FCCE012F95CFCF92FC
:100A1000DF92EF92FF920F931F93CF93DF936C01BE
:100A20007A018B01C0E0D0E0CE15DF0589F0D80156
:100A30006D918D01D601ED91FC910190F081E02D39
:100A4000C6010995892B11F47E0102C02196ECCFD5
:100A5000C701DF91CF911F910F91FF90EF90DF9031
:100A6000CF9008950E946C0DEFE9F1E0A089B18963
:100A700082E08C93A485B5851C92A685B7858FEC02
:100A80008C93108EA489B58986E08C93A289B38952
:100A90008C9180618C93A289B3898C9188608C93AE
:100AA000A289B3898C9180688C930288F389E02DA8
:100AB00080818F7D80830895EF92FF920F931F9323
:100AC000CF93DF9348E050E031E080E097E0E92EFB
:100AD000F12CC3E2D0E00FEC10E090913C02E091E9
:100AE0003D02F0913E02F8942181292B21836281FD
:100AF000292F209562236283D7011197F1F7618135
:100B000026232183DE011197F1F720817894F801E3
:100B10003197F1F7922309F0832B330F415051099C
:100B2000E1F6DF91CF911F910F91FF90EF90089523
:100B3000CF92DF92EF92FF920F931F93CF93DF93A9
:100B400028E030E041E06FEF70E09FE0C92ED12C4B
:100B5000C3E2D0E007ED10E090913C02E0913D024D
:100B6000F0913E02592F5095F42EF82281F0F8941E
:100B7000F2805F2152835181592B5183DE011197FD
:100B8000F1F75281952B92837894F8010FC0F89475
:100B9000F2805F2152835181592B5183DB011197E0
:100BA000F1F75281952B92837894F6013197F1F702
:100BB000440F2150310981F6F894E0913D02F09103
:100BC0003E02918180913C02809598239183E0912F
:100BD0003D02F0913E029281892382837894DF91D5
:100BE000CF911F910F91FF90EF90DF90CF900895DC
:100BF00090913C02E0913D02F0913E02F894818197
:100C0000292F20958223818378948DE743E050E05B
:100C1000815021F1DA011197F1F730813923C1F3C5
:100C2000F8948281822382838181892B81837894C5
:100C3000ABE7B7E01197F1F7F8948181282321837E
:100C4000A3E1B1E01197F1F78081982381E009F0E9
:100C500080E07894E3E6F6E03197F1F70895CF93DA
:100C6000DF939CB59F7D9CBD9CB5937F9CBD9CB53F
:100C70009C7F9CBD9DB591609DBDC2E9D2E0682F6F
:100C800089810E94DF018A899B89DF91CF910C9431
:100C9000670281E00C942F0680E00C942F06CF931E
:100CA000DF931F92CDB7DEB70E944C0681EE0E9403
:100CB000D10389830E94490689810F90DF91CF91EA
:100CC0000895CF93DF931F92CDB7DEB789830E943B
:100CD0004C0689818F710E94D1038FEF0E94D1034E
:100CE00089830E94490689810F90DF91CF910895F1
:100CF0001F93CF93DF9300D0CDB7DEB76A8389838C
:100D00000E944C0689818F7180620E94D103182F46
:100D10006A81862F0E94D1030E944906812F0F907D
:100D20000F90DF91CF911F910895EF92FF920F9353
:100D30001F93CF93DF9300D01F92CDB7DEB7162F4E
:100D40004A837B8389830E944C0689818F718062EC
:100D50000E94D103082FE12E7B81F72E4A81140FC8
:100D60001E1531F0F70181917F010E94D103F8CF68
:100D70000E944906802F0F900F900F90DF91CF9126
:100D80001F910F91FF90EF900895682F809192022C
:100D90009091930289130C94DF01089580E00E94E2
:100DA000610681FD0BC0682F626080E00E947806BA
:100DB00065E070E080E090E00C94720208950E947B
:100DC000CE0680E00E946106682F616080E00E948C
:100DD000780660E787E00E94780681E00E94C506F9
:100DE00080919902882341F040919E0269E972E066
:100DF0008AE00E94950612C082E00E946106ECE93A
:100E0000F0E0E49121E030E001C0220FEA95EAF73A
:100E10002095622F682382E00E9478068DE10E946F
:100E2000610681FD0C944F0608950F931F93CF9395
:100E30008C0186E00E946106C82FC77D0230110533
:100E400031F4C0628BE990E0A0E0B0E00DC0013069
:100E5000110529F085E590E0A0E0B0E005C0C8608C
:100E600081E490E0A0E0B0E08093A0029093A10222
:100E7000A093A202B093A3026C2F86E00E94780692
:100E800086E00E94610691E08C1390E0892FCF915B
:100E90001F910F9108956115710579F0FB01019083
:100EA0000020E9F73197AF01461B570BDC01ED91AC
:100EB000FC910280F381E02D099480E090E0089598
:100EC0004F925F926F927F92EF92FF920F931F93D8
:100ED000CF93DF93CDB7DEB7A1970FB6F894DEBFFF
:100EE0000FBECDBF7C01FA01CB0119A2223008F45C
:100EF0002AE08E010F5D1F4F422E512C612C712C68
:100F0000BF01A30192010E940D0CF901CA01015019
:100F100011096A3014F4605D01C0695CD8016C93FA
:100F2000232B242B252B61F7B801C7010E944B0707
:100F3000A1960FB6F894DEBF0FBECDBFDF91CF9163
:100F40001F910F91FF90EF907F906F905F904F9067
:100F50000895CF93DF93CDB7DEB760970FB6F894BF
:100F6000DEBF0FBECDBF789484B5826084BD84B5EA
:100F7000816084BD85B5826085BD85B5816085BD94
:100F800080916E00816080936E001092810080914C
:100F900081008260809381008091810081608093D4
:100FA0008100809180008160809380008091B100F9
:100FB00084608093B1008091B00081608093B00024
:100FC00080917A00846080937A0080917A008260B8
:100FD00080937A0080917A00816080937A0080917A
:100FE0007A00806880937A001092C10010928E027D
:100FF00010928F02109290021092910210924C0265
:1010000010924D0210924E0210924F0268EB7BE05C
:1010100080E090E00E9472028FE991E090938D024F
:1010200080938C020E9434052FB7F8948091990127
:1010300090919A01A0919B01B0919C012FBF809348
:101040004C0290934D02A0934E02B0934F0265E77D
:1010500071E080918C0290918D020E944B076AE0B2
:1010600070E080E090E00E94720281E08093600274
:101070000E94340561E084E00E942B0260919E0191
:1010800084E00E94DF0188ED93E09093010180935A
:101090000001809169008C7F80936900E89A10922A
:1010A000040110921D0110923601809192029091DC
:1010B0009302891719F061E00E942B02809193023C
:1010C00090919202981719F061E00E942B021FB7CD
:1010D000F89480919D01811127C0E6EBF0E08491A6
:1010E000EAECF0E09491E82FF0E0EE0FFF1FEA57F2
:1010F000FF4FA591B491EC91E92321F461E08AE0DE
:101100000E94DF0161E08AE00E942B028CB58061C1
:101110008CBD8CB580648CBD61E08DE00E942B029B
:1011200061E08BE00E942B0280919D018F5F809394
:101130009D011FBF80E00E94C50681E00E942F062E
:1011400065E070E080E090E00E9472026CE080E078
:101150000E9478066FE584E00E94780682E090E0C5
:101160000E941507882319F081E08093960286E09B
:101170000E94610680E090E00E9415070E944C06E4
:1011800080E50E94D10383E70E94D1030E944906B3
:1011900060E08DE10E94780660E08CE10E947806B4
:1011A00060E787E00E9478066CE485E00E9478069C
:1011B0000E944C0682EE0E94D1030E9449060E94C2
:1011C0004F060E94CE0680E00E946106682F6E7F67
:1011D00080E00E9478068DE10E946106682F6660BB
:1011E0008DE10E9478068CE10E946106682F6360A1
:1011F0008CE10E94780611E0109398028DE10E9424
:101200006106682F64608DE10E9478068CE10E947F
:101210006106682F6F638CE10E9478061093980234
:1012200062E385E00E9478066FEF84E00E94780612
:1012300081E090E00E94150786E00E946106887FA9
:10124000682F656086E00E9478066FE381E00E9467
:10125000780680E00E946106682F6C6080E00E9442
:10126000780682EE898710EF1A871B871C871D87F7
:101270001E861F86188A40919E02BE01675F7F4FBF
:101280008AE00E94950640919E02BE01675F7F4FF3
:1012900080E10E9495066091970281E10E947806A4
:1012A00081EE89831A831B831C831D831E821F8208
:1012B0001886E7E9F0E0849140919E02BE016F5FDD
:1012C0007F4F0E949506E1E9F0E0849160919702DA
:1012D0000E94780682E00E946106EDE9F0E0E49168
:1012E00061E070E001C0660FEA95EAF7682B82E0E2
:1012F0000E9478060E94DF060E94AC020E94D8037A
:10130000C0900501D0900601E0900701F09008011F
:10131000A7019601C701B6010E94420D882319F06A
:1013200067E871E01AC046015701E894B7F82FEF5B
:101330003FEF4FE75FE7C501B4010E94420D811105
:1013400011C02FEF3FEF4FE75FE7C501B4010E94E7
:10135000E90A18163CF46BE871E08FE991E00E940D
:101360004B0789C02FEF3FEF4FE75FE4C701B6019E
:101370000E943D0D18161CF46FE871E0EECF2FEFC0
:101380003FEF4FE75FECC701B6010E94E90A87FD16
:10139000F3CF20E030E0A901C701B6010E94E90ABD
:1013A00087FF0FC0E0919F01F091A0010190F081B3
:1013B000E02D6DE28FE991E00995F7FAF094F7F8E6
:1013C000F0942AE037ED43EA5BE3C701B6010E94DF
:1013D000300C4B015C010E940E0D6B017C010E94E0
:1013E000EE0A9B01AC01C501B4010E942F0C4B0118
:1013F0005C012AE0B701A6018FE991E00E94600735
:10140000E0919F01F091A0010190F081E02D6EE24A
:101410008FE991E0099520E030E040E251E4C50118
:10142000B4010E944F0B4B015C010E940E0D6B0139
:10143000E12CF12C2AE0B701A6018FE991E00E948E
:101440006007C701B6010E94EE0A9B01AC01C5010D
:10145000B4010E942F0C20E030E040E251E40E94F1
:101460004F0B0E940E0DAB0160E070E02AE08FE9A7
:1014700091E00E94600764E871E08FE991E00E94CA
:101480004B070E94570138CF1092A2011092A10180
:1014900088EE93E0A0E0B0E08093A3019093A401D4
:1014A000A093A501B093A60183E591E09093A001DC
:1014B00080939F0185EC90E09093AC018093AB0109
:1014C00084EC90E09093AE018093AD0180EC90E0CD
:1014D0009093B0018093AF0181EC90E09093B201C2
:1014E0008093B10182EC90E09093B4018093B301BA
:1014F00086EC90E09093B6018093B5011092B8010C
:101500001092B9011092BA011092BB0160E083E021
:101510000E942B02E3ECF0E0E491E0933C02EFEA5E
:10152000F0E0E491F0E0EE0FFF1FEE55FF4F8591E4
:10153000949190933E0280933D0210924702109244
:10154000490210924802E7E4F2E0129282E0EF339F
:10155000F807D9F7109250021092510210925202DD
:101560001092530210925402109255021092560299
:1015700010925702109258021092590210925A0279
:1015800010925B0210925C0210925D0210925E0259
:1015900010925F0289E0809392028AE08093930226
:1015A0001092960280E2809397021092980285E052
:1015B00080939E0285E090E0A0E0B0E08093A402DA
:1015C0009093A502A093A602B093A702109299024D
:1015D00008950E942B0B08F481E00895E89409C057
:1015E00097FB3EF490958095709561957F4F8F4F56
:1015F0009F4F9923A9F0F92F96E9BB279395F6956C
:10160000879577956795B795F111F8CFFAF4BB0FE9
:1016100011F460FF1BC06F5F7F4F8F4F9F4F16C04D
:10162000882311F096E911C0772321F09EE8872FD7
:10163000762F05C0662371F096E8862F70E060E093
:101640002AF09A95660F771F881FDAF7880F96950C
:10165000879597F90895990F0008550FAA0BE0E8B0
:10166000FEEF16161706E807F907C0F01216130664
:10167000E407F50798F0621B730B840B950B39F4A4
:101680000A2661F0232B242B252B21F408950A260A
:1016900009F4A140A6958FEF811D811D08950E9438
:1016A000620B0C94D30B0E94C50B38F00E94CC0B3C
:1016B00020F0952311F00C94BC0B0C94C20B112458
:1016C0000C94070C0E94E40B70F3959FC1F3950FE7
:1016D00050E0551F629FF001729FBB27F00DB11DB6
:1016E000639FAA27F00DB11DAA1F649F6627B00D46
:1016F000A11D661F829F2227B00DA11D621F739F2F
:10170000B00DA11D621F839FA00D611D221F749F3C
:101710003327A00D611D231F849F600D211D822F83
:10172000762F6A2F11249F5750409AF0F1F08823AA
:101730004AF0EE0FFF1FBB1F661F771F881F9150D7
:101740005040A9F79E3F510580F00C94BC0B0C94BF
:10175000070C5F3FE4F3983ED4F386957795679541
:10176000B795F795E7959F5FC1F7FE2B880F911D01
:101770009695879597F9089597F99F6780E870E0A7
:1017800060E008959FEF80EC089500240A941616F7
:10179000170618060906089500240A94121613065F
:1017A000140605060895092E0394000C11F48823ED
:1017B00052F0BB0F40F4BF2B11F460FF04C06F5F09
:1017C0007F4F8F4F9F4F089557FD9058440F551FDF
:1017D00059F05F3F71F04795880F97FB991F61F0B3
:1017E0009F3F79F087950895121613061406551F2A
:1017F000F2CF4695F1DF08C0161617061806991F96
:10180000F1CF86957105610508940895E894BB278A
:1018100066277727CB0197F90895A1E21A2EAA1B14
:10182000BB1BFD010DC0AA1FBB1FEE1FFF1FA21790
:10183000B307E407F50720F0A21BB30BE40BF50B8D
:10184000661F771F881F991F1A9469F76095709516
:10185000809590959B01AC01BD01CF010895505832
:10186000BB27AA270E94470C0C94D30B0E94C50BE0
:1018700038F00E94CC0B20F039F49F3F19F426F485
:101880000C94C20B0EF4E095E7FB0C94BC0BE92F13
:101890000E94E40B58F3BA17620773078407950791
:1018A00020F079F4A6F50C94060C0EF4E0950B2EBE
:1018B000BA2FA02D0B01B90190010C01CA01A001A2
:1018C0001124FF27591B99F0593F50F4503E68F1FD
:1018D0001A16F040A22F232F342F4427585FF3CF3E
:1018E000469537952795A795F0405395C9F77EF40F
:1018F0001F16BA0B620B730B840BBAF09150A1F058
:10190000FF0FBB1F661F771F881FC2F70EC0BA0FDD
:10191000621F731F841F48F4879577956795B79565
:10192000F7959E3F08F0B0CF9395880F08F0992760
:10193000EE0F9795879508950E94B00C0C94D30BE9
:101940000E94CC0B58F00E94C50B40F029F45F3F79
:1019500029F00C94BC0B51110C94070C0C94C20B85
:101960000E94E40B68F39923B1F3552391F3951B7F
:10197000550BBB27AA2762177307840738F09F5FB0
:101980005F4F220F331F441FAA1FA9F335D00E2E1D
:101990003AF0E0E832D091505040E695001CCAF78A
:1019A0002BD0FE2F29D0660F771F881FBB1F26174D
:1019B00037074807AB07B0E809F0BB0B802DBF0124
:1019C000FF2793585F4F3AF09E3F510578F00C94F3
:1019D000BC0B0C94070C5F3FE4F3983ED4F3869560
:1019E00077956795B795F7959F5FC9F7880F911D14
:1019F0009695879597F90895E1E0660F771F881F00
:101A0000BB1F621773078407BA0720F0621B730BB2
:101A1000840BBA0BEE1F88F7E09508950E94EC0B3B
:101A200088F09F5798F0B92F9927B751B0F0E1F09F
:101A3000660F771F881F991F1AF0BA95C9F714C04F
:101A4000B13091F00E94060CB1E008950C94060CA0
:101A5000672F782F8827B85F39F0B93FCCF3869588
:101A600077956795B395D9F73EF4909580957095E5
:101A700061957F4F8F4F9F4F08950E942B0B08F465
:101A80008FEF08950E942B0B880B990B0895052E5C
:101A900097FB1EF400940E945E0D57FD07D00E9434
:101AA0000D0C07FC03D04EF40C945E0D5095409540
:101AB000309521953F4F4F4F5F4F089590958095FA
:101AC000709561957F4F8F4F9F4F0895EE0FFF1FC9
:101AD0000590F491E02D099481E090E0F8940C9445
:061AE000710DF894FFCF28
:101AE60086018601000000000031384232305F7402
:101AF600656D70284329000000000000000000000A
:101B06000000426174745F706F77285629000000E8
:101B160000000000000000000000005377697468B0
:101B260000000000000000000000000000000000AF
:101B3600000000EE000705B7009500A90035015426
:101B46006F6F20626967206E756D207061722E005E
:101B56004461746100564D4450565F317C315F5686
:101B66004D4450560D0A006E616E00696E66006F38
:041B7600766600008F
:107800000C94343C0C94513C0C94513C0C94513CE1
:107810000C94513C0C94513C0C94513C0C94513CB4
:107820000C94513C0C94513C0C94513C0C94513CA4
:107830000C94513C0C94513C0C94513C0C94513C94
:107840000C94513C0C94513C0C94513C0C94513C84
:107850000C94513C0C94513C0C94513C0C94513C74
:107860000C94513C0C94513C11241FBECFEFD8E036
:10787000DEBFCDBF11E0A0E0B1E0ECE9FFE702C060
:1078800005900D92A230B107D9F712E0A2E0B1E065
:1078900001C01D92AD30B107E1F70E942D3D0C945F
:1078A000CC3F0C94003C982F959595959595959582
:1078B000905D8F708A307CF0282F295A8091C0000B
:1078C00085FFFCCF9093C6008091C00085FFFCCF60
:1078D0002093C6000895282F205DF0CF982F809127
:1078E000C00085FFFCCF9093C6000895EF92FF92F1
:1078F0000F931F93EE24FF2487018091C00087FD22
:1079000017C00894E11CF11C011D111D81E4E8164B
:1079100082E4F8068FE0080780E0180770F3E09132
:107920000401F091050109958091C00087FFE9CF1E
:107930008091C6001F910F91FF90EF9008950E94D3
:10794000763C982F8091C00085FFFCCF9093C600B5
:1079500091362CF490330CF09053892F089597555D
:10796000892F08951F930E949F3C182F0E949F3CCF
:107970001295107F810F1F9108951F93182F882350
:1079800021F00E94763C1150E1F71F9108951F935A
:10799000182F0E94763C803249F0809103018F5F5E
:1079A000809303018530C1F01F9108958091C0003C
:1079B00085FFFCCF84E18093C6008091C00085FFE5
:1079C000FCCF1093C6008091C00085FFFCCF80E102
:1079D0008093C6001F910895E0910401F091050184
:1079E00009951F9108950E94763C803241F0809164
:1079F00003018F5F80930301853081F008958091AA
:107A0000C00085FFFCCF84E18093C6008091C00058
:107A100085FFFCCF80E18093C6000895E0910401CA
:107A2000F09105010995089540E951E08823A1F0FE
:107A30002D9A28EE33E0FA013197F1F721503040CA
:107A4000D1F72D9828EE33E0FA013197F1F7215064
:107A50003040D1F7815061F708953F924F925F9285
:107A60006F927F928F929F92AF92BF92CF92DF924E
:107A7000EF92FF920F931F93CF93DF93000080E16B
:107A80008093C4001092C50088E18093C10086E015
:107A90008093C2005098589A259A81E00E94143D24
:107AA00024E1F22E9EE1E92E85E9D82E0FE0C02ECA
:107AB00010E1B12EAA24A394B1E49B2EA6E58A2E50
:107AC000F2E57F2EE0E26E2E79E4572E63E5462E36
:107AD00050E5352E0E94763C8033B1F18133B9F107
:107AE000803409F46FC0813409F476C0823409F41B
:107AF00085C0853409F488C0803531F1823521F1A3
:107B0000813511F1853509F485C0863509F48DC0BC
:107B1000843609F496C0843709F403C1853709F423
:107B200072C1863709F466C0809103018F5F80932C
:107B30000301853079F6E0910401F0910501099582
:107B40000E94763C803351F60E94F33CC3CF0E94E2
:107B5000763C803249F78091C00085FFFCCFF092DF
:107B6000C6008091C00085FFFCCF9092C600809136
:107B7000C00085FFFCCF8092C6008091C00085FFC9
:107B8000FCCF7092C6008091C00085FFFCCF609250
:107B9000C6008091C00085FFFCCF5092C600809146
:107BA000C00085FFFCCF4092C6008091C00085FFD9
:107BB000FCCF3092C6008091C00085FFFCCFB09210
:107BC000C60088CF0E94763C863808F4BDCF0E945C
:107BD000763C0E94F33C7ECF0E94763C803809F4CC
:107BE0009CC0813809F40BC1823809F43CC1883942
:107BF00009F48FC080E00E94C73C6CCF84E10E94F2
:107C0000BD3C0E94F33C66CF85E00E94BD3C0E94D3
:107C1000F33C60CF0E94763C809306010E94763C44
:107C2000809307010E94F33C55CF0E94763C80333D
:107C300009F41DC183E00E94BD3C80E00E94C73C66
:107C400049CF0E94763C809309020E94763C809343
:107C5000080280910C028E7F80930C020E94763C79
:107C6000853409F415C18091080290910902892B8D
:107C700089F000E010E00E94763CF801E85FFE4FDA
:107C800080830F5F1F4F80910802909109020817AF
:107C9000190788F30E94763C803209F045CF809125
:107CA0000C0280FF01C16091060170910701660F0F
:107CB000771F7093070160930601A0910802B091AD
:107CC00009021097C9F0E8E0F1E09B01AD014E0F09
:107CD0005F1FF999FECF32BD21BD819180BDFA9A17
:107CE000F99A2F5F3F4FE417F50799F76A0F7B1F4B
:107CF00070930701609306018091C00085FFFCCF5F
:107D0000F092C6008091C00085FFFCCFB092C60003
:107D1000E1CE83E00E94C73CDDCE82E00E94C73CFA
:107D2000D9CE0E94763C809309020E94763C8093D3
:107D300008028091060190910701880F991F909386
:107D40000701809306010E94763C853409F4A6C0A1
:107D500080910C028E7F80930C020E94763C8032D0
:107D600009F0B8CE8091C00085FFFCCFF092C6002C
:107D7000609108027091090261157105B9F140E046
:107D800050E080910C02A82FA170B82FB27011C0E2
:107D9000BB2309F45CC0E0910601F0910701319624
:107DA000F0930701E09306014F5F5F4F46175707B7
:107DB000E8F4AA2369F3F999FECF209106013091E6
:107DC000070132BD21BDF89A90B58091C00085FFB2
:107DD000FCCF9093C6002F5F3F4F30930701209355
:107DE00006014F5F5F4F4617570718F38091C00099
:107DF00085FDE5CE8091C00085FFF8CFE0CE81E023
:107E00000E94C73C67CE0E94763C803209F08CCE3F
:107E10008091C00085FFFCCFF092C6008091C00029
:107E200085FFFCCFE092C6008091C00085FFFCCFAB
:107E3000D092C6008091C00085FFFCCFC092C600E2
:107E40008091C00085FFFCCFB092C60043CEE09188
:107E50000601F091070194918091C00085FFFCCF4D
:107E60009093C6009CCF80E10E94C73C33CE0E9415
:107E7000763C0E94763C182F0E94763C112309F430
:107E800083C0113009F484C08FE00E94C73C22CE29
:107E900080910C02816080930C02E5CE80910C02EF
:107EA000816080930C0259CF809107018823880F4D
:107EB000880B8A2180930B02809106019091070123
:107EC000880F991F90930701809306018091080203
:107ED00080FF09C080910802909109020196909359
:107EE000090280930802F894F999FECF1127E091D6
:107EF0000601F0910701C8E0D1E08091080290915D
:107F00000902103091F40091570001700130D9F34B
:107F100003E000935700E89500915700017001308D
:107F2000D9F301E100935700E89509901990009169
:107F3000570001700130D9F301E000935700E89534
:107F40001395103498F011270091570001700130FB
:107F5000D9F305E000935700E895009157000170B0
:107F60000130D9F301E100935700E895329602976A
:107F700009F0C7CF103011F00296E5CF112480919F
:107F8000C00085FFB9CEBCCE8EE10E94C73CA2CD19
:0C7F900085E90E94C73C9ECDF894FFCF0D
:027F9C00800063
:040000030000780081
:00000001FF