:100000000C946B000C941D030C94F6020C9493005A
:100010000C9493000C9493000C9493000C94930014
:100020000C9493000C9493000C9493000C94930004
:100030000C9493000C9493000C9493000C949300F4
:100040000C94AC020C9493000C94B8010C949201A3
:100050000C9493000C9493000C9493000C949300D4
:100060000C9493000C9493000000000025002800DD
:100070002B0000000008000201000003040700003C
:1000800000000000000000000000240027002A00FB
:100090001112131415160A0B0C0D0E0F000102039A
:1000A00004050000000023002600290004040404C5
:1000B0000404040402020202020203030303030312
:1000C00001020408102040800102040810200102EF
:1000D00004081020E20911241FBECFEFD8E0DEBFD4
:1000E000CDBF11E0A0E0B1E0EAECF9E102C005907B
:1000F0000D92A438B107D9F722E0A4E8B1E001C01D
:100100001D92AC34B207E1F710E0CBE6D0E004C0BA
:100110002197FE010E949C0ACA36D107C9F70E94A6
:100120006A070C94E30C0C940000FC01918D828D05
:10013000981761F0828DDF01A80FB11D5D968C913B
:10014000928D9F5F9F73928F90E008958FEF9FEF46
:100150000895FC01918D828D981731F0828DE80F02
:10016000F11D858D90E008958FEF9FEF0895FC01BC
:10017000918D228D892F90E0805C9F4F821B910989
:100180008F73992708958FE891E00E94B70021E0CE
:10019000892B09F420E0822F0895FC01848DDF0172
:1001A000A80FB11DA35ABF4F2C91848D90E00196EA
:1001B0008F739927848FA689B7892C93A089B189D9
:1001C0008C9180648C93938D848D981306C00288E3
:1001D000F389E02D80818F7D80830895EF92FF92D7
:1001E0000F931F93CF93DF93EC0181E0888F9B8D5A
:1001F0008C8D981305C0E889F989808185FD24C01C
:10020000F62E0B8D10E00F5F1F4F0F731127E02E9E
:100210008C8DE8120CC00FB607FCFACFE889F9897B
:10022000808185FFF5CFCE010E94CD00F1CF8B8D6F
:10023000FE01E80FF11DE35AFF4FF0820B8FEA89B0
:10024000FB898081806207C0EE89FF896083E8892D
:10025000F98980818064808381E090E0DF91CF9193
:100260001F910F91FF90EF900895CF93DF93EC01D2
:10027000888D8823C9F0EA89FB89808185FD05C0C6
:10028000A889B9898C9186FD0FC00FB607FCF5CF00
:10029000808185FFF2CFA889B9898C9185FFEDCF48
:1002A000CE010E94CD00E7CFDF91CF91089580E08D
:1002B00090E0892B29F00E94C30081110C9400006A
:1002C00008958230910538F0880F991F880F991F83
:1002D00005970197F1F708953FB7F8948091890148
:1002E00090918A01A0918B01B0918C0126B5A89BB9
:1002F00005C02F3F19F00196A11DB11D3FBFBA2FB8
:10030000A92F982F8827820F911DA11DB11DBC0117
:10031000CD0142E0660F771F881F991F4A95D1F7DC
:10032000089508951F920F920FB60F9211242F93E4
:100330003F934F935F936F937F938F939F93AF936D
:10034000BF93EF93FF938FE891E00E94CD00FF9160
:10035000EF91BF91AF919F918F917F916F915F913D
:100360004F913F912F910F900FBE0F901F901895B6
:100370001F920F920FB60F9211242F938F939F937A
:10038000EF93FF93E0919F01F091A0018081E091B4
:10039000A501F091A60182FD12C090818091A80173
:1003A0008F5F8F732091A901821751F0E091A8010E
:1003B000F0E0E157FE4F958F8093A80101C0808146
:1003C000FF91EF919F918F912F910F900FBE0F9002
:1003D0001F90189590E0FC01EE58FF4F3491FC01FE
:1003E000E054FF4F2491FC01E455FF4FE491EE23CC
:1003F00009F43BC0332339F1333091F038F4313014
:10040000A9F0323001F584B58F7D12C0373091F0FC
:100410003830A1F03430B9F4809180008F7D03C072
:10042000809180008F77809380000DC084B58F7796
:1004300084BD09C08091B0008F7703C08091B00067
:100440008F7D8093B000F0E0EE0FFF1FE859FF4F63
:10045000A591B4918FB7F894EC91611103C02095E8
:100460002E2301C02E2B2C938FBF0895CF93DF93A3
:1004700090E0FC01E054FF4F2491FC01E455FF4F54
:100480008491882361F190E0880F991FFC01EA575D
:10049000FF4FC591D491FC01E859FF4FA591B4914C
:1004A000611109C09FB7F8948881209582238883C1
:1004B000EC912E230BC0623061F49FB7F894388121
:1004C000822F809583238883EC912E2B2C939FBFC2
:1004D00006C08FB7F894E8812E2B28838FBFDF9159
:1004E000CF9108958F929F92AF92BF92CF92DF9259
:1004F000EF92FF926B017C010E946C014B015C0149
:10050000C114D104E104F104F1F00E946C01DC019A
:10051000CB0188199909AA09BB09883E9340A10516
:10052000B10570F321E0C21AD108E108F10888EEA4
:10053000880E83E0981EA11CB11CC114D104E104F3
:10054000F10419F7DDCFFF90EF90DF90CF90BF90CF
:10055000AF909F908F9008951F920F920FB60F92B9
:1005600011242F933F938F939F93AF93BF938091C9
:10057000850190918601A0918701B0918801309109
:10058000840123E0230F2D3720F40196A11DB11D16
:1005900005C026E8230F0296A11DB11D20938401FA
:1005A0008093850190938601A0938701B093880181
:1005B0008091890190918A01A0918B01B0918C0169
:1005C0000196A11DB11D8093890190938A01A0938A
:1005D0008B01B0938C01BF91AF919F918F913F910F
:1005E0002F910F900FBE0F901F9018951F920F9292
:1005F0000FB60F9211242F933F934F935F936F93F6
:100600007F938F939F93AF93BF93EF93FF93E0916B
:100610000201F09103010995FF91EF91BF91AF9114
:100620009F918F917F916F915F914F913F912F910A
:100630000F900FBE0F901F9018951F920F920FB63C
:100640000F9211242F933F934F935F936F937F9358
:100650008F939F93AF93BF93EF93FF93E09100012C
:10066000F09101010995FF91EF91BF91AF919F9199
:100670008F917F916F915F914F913F912F910F904B
:100680000FBE0F901F9018958EBD00000DB407FE91
:10069000FDCF8EB50895EF92FF920F931F93CF93E6
:1006A000DF93CDB7DEB7E5970FB6F894DEBF0FBE88
:1006B000CDBF87E10E942D0680FFA7C02BC00E94FE
:1006C000150660E787E00E9444069CA98BA982304A
:1006D00009F4C9C008F0C0C0813009F08AC160E0E7
:1006E00070E080E490E411E019836A837B838C835B
:1006F0009D8389E1FE013196DE015A9601900D92AB
:100700008A95E1F780E791E00E94E10685E791E0B4
:100710000E94E10680E00E9491068091390290914A
:100720003A020E9461018DE10E942D0681FF08C0FE
:100730008091390290913A020E9461010E941B0649
:1007400080E00E942D06682F6E7F80E00E944406A4
:1007500082E00E942D06ECE9F0E0E49161E070E0B7
:1007600001C0660FEA95EAF7682B82E00E94440612
:1007700010913102012F1A3108F009E18091320203
:10078000811102C0101B01C010E00E94180680EA0F
:100790000E9444037E01FAE1EF0EF11C015030F09B
:1007A000F70181917F010E944403F8CF112329F0C2
:1007B00080E00E9444031150F9CF0E94150681E0A9
:1007C0000E9491060E9418068FEF0E9444038DAB91
:1007D0000E9415068DA98073A9F380E00E949106FE
:1007E00060E787E00E94440684FD0E941B06E596B0
:1007F0000FB6F894DEBF0FBECDBFDF91CF911F9132
:100800000F91FF90EF900C94AB06109131021230D3
:1008100008F4F3C002E080913202811102C0101B83
:1008200001C010E00E94180681E60E9444037E0188
:1008300083E3E80EF11C015038F08FEF0E9444036F
:10084000F70181937F01F7CF112309F438CF8FEFA0
:100850000E9444031150F8CF833009F48FC08430D4
:1008600009F49EC0C6C011E0109304010E94C8059F
:100870008CEC0E94680584E40E94680568EE73E0D1
:1008800080E090E00E9472020E94C8058CEC0E94F9
:1008900068058EEB0E9468050E942C05082F0E94B7
:1008A0002C05682F70E0762F6627600F711D072ECC
:1008B000000C880B990B0E94B70B20E030E040E859
:1008C0005DE30E946C0C60930501709306018093B8
:1008D00007019093080110931D0180E480937C0030
:1008E00080917C008E6080937C008AEF90E00E9473
:1008F000610180917A00806480937A0080917A000F
:1009000086FDFCCF209178003091790021153105CA
:1009100069F040E050E064EB7BE281E190E00E940E
:100920007D0ACA01B9010E94B70B04C060E070E003
:1009300080E89FEB20E030E04AE754E40E94140B8B
:1009400060931E0170931F018093200190932101F9
:1009500081E08093360160918E0170E080E090E04C
:100960000E94B50B60933701709338018093390171
:1009700090933A0160E070E0CB01B5CE60918E01BA
:1009800081E0162F182710938E01612F84E00E94BA
:10099000EA01612F70E080E090E00E94B50BA3CEE9
:1009A000892F90E08330910554F084E1EFE5F1E088
:1009B000DE01169601900D928A95E1F71AC029E1A1
:1009C000289FF001299FF00D1124DF01AC5FBE4F7D
:1009D0001C9111966D917D918D919C911497E75F7B
:1009E000FE4F24E1DE01169601900D922A95E1F763
:1009F0007BCE60E070E0CB0177CE012F0CCFCF92A1
:100A0000DF92EF92FF920F931F93CF93DF936C01CE
:100A10007A018B01C0E0D0E0CE15DF0589F0D80166
:100A20006D918D01D601ED91FC910190F081E02D49
:100A3000C6010995892B11F47E0102C02196ECCFE5
:100A4000C701DF91CF911F910F91FF90EF90DF9041
:100A5000CF9008950E94DE0CEF92FF920F931F93A8
:100A6000CF93DF9348E050E031E080E097E0E92E5B
:100A7000F12CC3E2D0E00FEC10E090913E02E09147
:100A80003F02F0914002F8942181292B2183628159
:100A9000292F209562236283D7011197F1F7618195
:100AA00026232183DE011197F1F720817894F80144
:100AB0003197F1F7922309F0832B330F41505109FD
:100AC000E1F6DF91CF911F910F91FF90EF90089584
:100AD000CF92DF92EF92FF920F931F93CF93DF930A
:100AE00028E030E041E06FEF70E09FE0C92ED12CAC
:100AF000C3E2D0E007ED10E090913E02E0913F02AA
:100B0000F0914002592F5095F42EF82281F0F8947C
:100B1000F2805F2152835181592B5183DE0111975D
:100B2000F1F75281952B92837894F8010FC0F894D5
:100B3000F2805F2152835181592B5183DB01119740
:100B4000F1F75281952B92837894F6013197F1F762
:100B5000440F2150310981F6F894E0913F02F09161
:100B60004002918180913E02809598239183E0918B
:100B70003F02F09140029281892382837894DF9131
:100B8000CF911F910F91FF90EF90DF90CF9008953C
:100B900090913E02E0913F02F0914002F8948181F1
:100BA000292F20958223818378948DE743E050E0BC
:100BB000815021F1DA011197F1F730813923C1F326
:100BC000F8948281822382838181892B8183789426
:100BD000ABE7B7E01197F1F7F894818128232183DF
:100BE000A3E1B1E01197F1F78081982381E009F04A
:100BF00080E07894E3E6F6E03197F1F708959CB54C
:100C00009F7D9CBD9CB5937F9CBD9CB59C7F9CBDEE
:100C10009DB591609DBD682F80912D020E94EA01D3
:100C20008FE090E00197F1F7089581E00C94FF05C3
:100C300080E00C94FF05CF93DF931F92CDB7DEB712
:100C40000E94180681EE0E94440389830E941506C3
:100C500089810F90DF91CF910895CF93DF931F92F9
:100C6000CDB7DEB789830E94180689818F710E94F3
:100C700044038FEF0E94440389830E9415068981F3
:100C80000F90DF91CF9108951F93CF93DF9300D002
:100C9000CDB7DEB76A8389830E94180689818F7178
:100CA00080620E944403182F6A81862F0E944403A9
:100CB0000E941506812F0F900F90DF91CF911F9109
:100CC0000895EF92FF920F931F93CF93DF9300D07D
:100CD0001F92CDB7DEB7162F4A837B8389830E948C
:100CE000180689818F7180620E944403082FE12ECB
:100CF0007B81F72E4A81140F1E1531F0F701819187
:100D00007F010E944403F8CF0E941506802F0F90A8
:100D10000F900F90DF91CF911F910F91FF90EF9067
:100D20000895682F80912C0290912D0289130C94C4
:100D3000EA01089580E00E942D0681FD0BC0682F16
:100D4000626080E00E94440665E070E080E090E030
:100D50000C94720208950E949A0680E00E942D066B
:100D6000682F616080E00E94440660E787E00E948F
:100D7000440681E00E94910680913302882341F06D
:100D80004091380263E372E08AE00E94610612C07B
:100D900082E00E942D06ECE9F0E0E49121E030E0F1
:100DA00001C0220FEA95EAF72095622F682382E0BE
:100DB0000E9444068DE10E942D0681FD0C941B06C5
:100DC0000895009769F0FC0101900020E9F7319740
:100DD000AF01481B590BBC018FE891E00C94FF0454
:100DE00080E090E008950F931F93CF938C0186E0ED
:100DF0000E942D06C82FC77D0230110531F4C06254
:100E00008BE990E0A0E0B0E00DC00130110529F0C1
:100E100085E590E0A0E0B0E005C0C86081E490E026
:100E2000A0E0B0E08093390290933A02A0933B0295
:100E3000B0933C026C2F86E00E94440686E00E943C
:100E40002D0691E08C1390E0892FCF911F910F9187
:100E500008958F929F92AF92BF920F931F93CF935B
:100E6000DF93CDB7DEB7A1970FB6F894DEBF0FBE04
:100E7000CDBF19A2423008F44AE08E010F5D1F4F2A
:100E8000842E912CA12CB12CA50194010E945B0A07
:100E9000E62FB901CA0101501109EA3014F4E05DEE
:100EA00001C0E95CD801EC93232B242B252B61F79F
:100EB000C8010E94E106A1960FB6F894DEBF0FBEEE
:100EC000CDBFDF91CF911F910F91BF90AF909F90B9
:100ED0008F900895CF93DF93CDB7DEB760970FB6AD
:100EE000F894DEBF0FBECDBF789484B5826084BD18
:100EF00084B5816084BD85B5826085BD85B581601E
:100F000085BD80916E00816080936E00109281009B
:100F10008091810082608093810080918100816056
:100F20008093810080918000816080938000809117
:100F3000B10084608093B1008091B00081608093A3
:100F4000B00080917A00846080937A0080917A006A
:100F5000826080937A0080917A00816080937A0029
:100F600080917A00806880937A001092C100E091AD
:100F70009F01F091A00182E08083E0919B01F091BC
:100F80009C011082E0919D01F0919E018FEC808385
:100F90001092A701E091A301F091A40186E0808363
:100FA000E091A101F091A201808180618083E091B4
:100FB000A101F091A201808188608083E091A1016C
:100FC000F091A201808180688083E091A101F0917D
:100FD000A20180818F7D808361E084E00E943602DF
:100FE00060918E0184E00E94EA018BE493E090938B
:100FF000010180930001809169008C7F80936900DA
:10100000E89A1092040110921D011092360180910D
:101010002C0290912D02891719F061E00E9436028E
:1010200080912D0290912C02981719F061E00E9496
:1010300036021FB7F89480918D01811127C0E6EB2D
:10104000F0E08491EAECF0E09491E82FF0E0EE0F0C
:10105000FF1FEA57FF4FA591B491EC91E92321F4CA
:1010600061E08AE00E94EA0161E08AE00E943602C3
:101070008CB580618CBD8CB580648CBD61E08DE0E9
:101080000E94360261E08BE00E94360280918D0161
:101090008F5F80938D011FBF80E00E94910681E0E9
:1010A0000E94FF0565E070E080E090E00E9472021F
:1010B0006CE080E00E9444066FE584E00E944406F4
:1010C00082E090E00E94F306882319F081E080938B
:1010D000300286E00E942D0680E090E00E94F30638
:1010E0000E94180680E50E94440383E70E9444039F
:1010F0000E94150660E08DE10E94440660E08CE1EC
:101100000E94440660E787E00E9444066CE485E0A4
:101110000E9444060E94180682EE0E9444030E9428
:1011200015060E941B060E949A0680E00E942D066A
:10113000682F6E7F80E00E9444068DE10E942D069C
:10114000682F66608DE10E9444068CE10E942D06A6
:10115000682F63608CE10E94440611E01093320214
:101160008DE10E942D06682F64608DE10E94440687
:101170008CE10E942D06682F6F638CE10E9444066B
:101180001093320262E385E00E9444066FEF84E030
:101190000E94440681E090E00E94F30686E00E94EF
:1011A0002D06887F682F656086E00E9444066FE305
:1011B00081E00E94440680E00E942D06682F6C604A
:1011C00080E00E94440682EE898710EF1A871B8711
:1011D0001C871D871E861F86188A40913802BE0113
:1011E000675F7F4F8AE00E94610640913802BE012E
:1011F000675F7F4F80E10E9461066091310281E16B
:101200000E94440681EE89831A831B831C831D83FD
:101210001E821F821886E7E9F0E08491409138022F
:10122000BE016F5F7F4F0E946106E1E9F0E08491AB
:10123000609131020E94440682E00E942D06EDE991
:10124000F0E0E49161E070E001C0660FEA95EAF732
:10125000682B82E00E9444060E94AB060E944B036A
:10126000C0900501D0900601E0900701F0900801C0
:10127000A7019601C701B6010E94D90C882319F075
:1012800088E791E01AC046015701E894B7F82FEFBC
:101290003FEF4FE75FE7C501B4010E94D90C811110
:1012A0000FC02FEF3FEF4FE75FE7C501B4010E948A
:1012B0000F0B18162CF48CE791E00E94E1067BC01E
:1012C0002FEF3FEF4FE75FE4C701B6010E94670CC5
:1012D00018161CF480E891E0F0CF2FEF3FEF4FE7B6
:1012E0005FECC701B6010E940F0B87FDF3CF20E032
:1012F00030E0A901C701B6010E940F0B87FF0FC0A4
:10130000E0918F01F09190010190F081E02D6DE26C
:101310008FE891E00995F7FAF094F7F8F0942AE055
:1013200037ED43EA5BE3C701B6010E94A30A4B0114
:101330005C010E94860B6B017C010E94B50B9B0136
:10134000AC01C501B4010E94A20A4B015C014AE054
:10135000C701B6010E9429078EE691E00E94E106CE
:1013600020E030E040E251E4C501B4010E946C0C81
:101370004B015C010E94860B6B01E12CF12C4AE0D1
:10138000C701B6010E942907C701B6010E94B50B2B
:101390009B01AC01C501B4010E94A20A20E030E02B
:1013A00040E251E40E946C0C0E94860B80E090E0C9
:1013B0004AE00E94290785E791E00E94E1060E9429
:1013C00057014CCF109292011092910188EE93E058
:1013D000A0E0B0E08093930190939401A0939501D5
:1013E000B093960183E591E09093900180938F01F3
:1013F00085EC90E090939C0180939B0184EC90E0BD
:1014000090939E0180939D0180EC90E09093A001C9
:1014100080939F0181EC90E09093A2018093A101C1
:1014200082EC90E09093A4018093A30186EC90E07D
:101430009093A6018093A5011092A8011092A90192
:101440001092AA011092AB0160E083E00E94360284
:10145000E3ECF0E0E491E0933E02EFEAF0E0E491A7
:10146000F0E0EE0FFF1FEE55FF4F859194919093A2
:10147000400280933F021092490210924B02109258
:101480004A02E9E4F2E0129282E0E134F807D9F787
:1014900088E080932C0287E080932D021092300226
:1014A00080E2809331021092320285E0809338020C
:1014B000109233020895A1E21A2EAA1BBB1BFD0154
:1014C0000DC0AA1FBB1FEE1FFF1FA217B307E40723
:1014D000F50720F0A21BB30BE40BF50B661F771F7B
:1014E000881F991F1A9469F760957095809590955B
:1014F0009B01AC01BD01CF010895052E97FB1EF4A1
:1015000000940E94940A57FD07D00E945B0A07FCD2
:1015100003D04EF40C94940A509540953095219543
:101520003F4F4F4F5F4F089590958095709561950F
:101530007F4F8F4F9F4F0895EE0FFF1F0590F4913F
:10154000E02D09945058BB27AA270E94BA0A0C9490
:101550002D0C0E941F0C38F00E94260C20F039F44C
:101560009F3F19F426F40C941C0C0EF4E095E7FB55
:101570000C94160CE92F0E943E0C58F3BA17620720
:1015800073078407950720F079F4A6F50C94600C96
:101590000EF4E0950B2EBA2FA02D0B01B90190018E
:1015A0000C01CA01A0011124FF27591B99F0593FD2
:1015B00050F4503E68F11A16F040A22F232F342F1A
:1015C0004427585FF3CF469537952795A795F04068
:1015D0005395C9F77EF41F16BA0B620B730B840B7D
:1015E000BAF09150A1F0FF0FBB1F661F771F881F35
:1015F000C2F70EC0BA0F621F731F841F48F487958D
:1016000077956795B795F7959E3F08F0B0CF93957E
:10161000880F08F09927EE0F9795879508950E94F7
:10162000F20B08F481E008950E94280B0C942D0C15
:101630000E94260C58F00E941F0C40F029F45F3FD6
:1016400029F00C94160C51110C94610C0C941C0C88
:101650000E943E0C68F39923B1F3552391F3951B37
:10166000550BBB27AA2762177307840738F09F5FC3
:101670005F4F220F331F441FAA1FA9F335D00E2E30
:101680003AF0E0E832D091505040E695001CCAF79D
:101690002BD0FE2F29D0660F771F881FBB1F261760
:1016A00037074807AB07B0E809F0BB0B802DBF0137
:1016B000FF2793585F4F3AF09E3F510578F00C9406
:1016C000160C0C94610C5F3FE4F3983ED4F38695BE
:1016D00077956795B795F7959F5FC9F7880F911D27
:1016E0009695879597F90895E1E0660F771F881F13
:1016F000BB1F621773078407BA0720F0621B730BC6
:10170000840BBA0BEE1F88F7E09508950E94460CF3
:1017100088F09F5798F0B92F9927B751B0F0E1F0B2
:10172000660F771F881F991F1AF0BA95C9F714C062
:10173000B13091F00E94600CB1E008950C94600CFF
:10174000672F782F8827B85F39F0B93FCCF386959B
:1017500077956795B395D9F73EF4909580957095F8
:1017600061957F4F8F4F9F4F0895E89409C097FB75
:101770003EF490958095709561957F4F8F4F9F4F68
:101780009923A9F0F92F96E9BB279395F6958795AC
:1017900077956795B795F111F8CFFAF4BB0F11F46F
:1017A00060FF1BC06F5F7F4F8F4F9F4F16C0882316
:1017B00011F096E911C0772321F09EE8872F762F4C
:1017C00005C0662371F096E8862F70E060E02AF08D
:1017D0009A95660F771F881FDAF7880F9695879579
:1017E00097F90895990F0008550FAA0BE0E8FEEF4E
:1017F00016161706E807F907C0F012161306E407D5
:10180000F50798F0621B730B840B950B39F40A26CD
:1018100061F0232B242B252B21F408950A2609F4AB
:10182000A140A6958FEF811D811D089597F99F67AF
:1018300080E870E060E008959FEF80EC0895002458
:101840000A941616170618060906089500240A9425
:1018500012161306140605060895092E0394000CAB
:1018600011F4882352F0BB0F40F4BF2B11F460FF3A
:1018700004C06F5F7F4F8F4F9F4F089557FD905863
:10188000440F551F59F05F3F71F04795880F97FB44
:10189000991F61F09F3F79F08795089512161306FE
:1018A0001406551FF2CF4695F1DF08C0161617062D
:1018B0001806991FF1CF8695710561050894089562
:1018C000E894BB2766277727CB0197F908950E94F4
:1018D000F20B08F48FEF08950E947F0C0C942D0CEE
:1018E0000E941F0C38F00E94260C20F0952311F066
:1018F0000C94160C0C941C0C11240C94610C0E947A
:101900003E0C70F3959FC1F3950F50E0551F629FF9
:10191000F001729FBB27F00DB11D639FAA27F00D48
:10192000B11DAA1F649F6627B00DA11D661F829F6F
:101930002227B00DA11D621F739FB00DA11D621F54
:10194000839FA00D611D221F749F3327A00D611D71
:10195000231F849F600D211D822F762F6A2F112453
:101960009F5750409AF0F1F088234AF0EE0FFF1F86
:10197000BB1F661F771F881F91505040A9F79E3FDD
:10198000510580F00C94160C0C94610C5F3FE4F34D
:10199000983ED4F3869577956795B795F795E79533
:1019A0009F5FC1F7FE2B880F911D9695879597F93C
:1019B00008950E94F20B880B990B089581E090E046
:0A19C000F8940C94E30CF894FFCFA8
:1019CA0091019101000000000031384232305F7409
:1019DA00656D702843290000000000000000000027
:1019EA000000426174745F706F7728562900000006
:1019FA0000000000000000000000005377697468CE
:101A0A0000000000000000000000000000000000CC
:101A1A00000000EE00FF04B7009500A9003501544C
:101A2A006F6F20626967206E756D207061722E007B
:101A3A0044617461000D0A006E616E00696E660091
:041A4A006F7666004D
:00000001FF
