:100000000C9459000C9481000C9481000C94810094
:100010000C9481000C9481000C9481000C9481005C
:100020000C9481000C9481000C9481000C9481004C
:100030000C9481000C9481000C9481000C9481003C
:100040000C94E0030C9481000C9445060C94770604
:100050000C9481000C9481000C9481000C9481001C
:100060000C9481000C94810001020408102040804F
:1000700001020408102001020408102004040404F2
:100080000404040402020202020203030303030342
:1000900000000000230026002900000000002500C9
:1000A00028002B0000000000240027002A00CF01B8
:1000B000A70611241FBECFEFD8E0DEBFCDBF11E0F1
:1000C000A0E0B1E0E4ECF6E102C005900D92AA3A9E
:1000D000B107D9F722E0AAEAB1E001C01D92AD3A1A
:1000E000B207E1F710E0C2EBD0E004C02297FE01B6
:1000F0000E945C0BCE3AD107C9F70E94EB060C9424
:10010000600B0C940000CF938AEB91E00E94DA011F
:1001100040E06CEC8AEB91E00E94770240E064E4FE
:100120008AEB91E00E94770268EE73E080E090E055
:100130000E9459048AEB91E00E94DA0140E06CECE5
:100140008AEB91E00E94770240E06EEB8AEB91E04F
:100150000E9477028AEB91E00E94B902C82F8AEBD5
:1001600091E00E94B902682F70E0762F66276C0F2D
:10017000711D882777FD8095982F0E94FE0920E049
:1001800030E040E85DE30E94B20ACF91089540ED6F
:1001900057E060E070E080ED91E00E94470320E8C6
:1001A00035E240E050E060E172E080ED91E00E94D5
:1001B0005A0380ED91E00E94440361E171E0809177
:1001C0000102909102020E9438076AE070E080E02C
:1001D00090E00E94590441E060E080ED91E00E94CF
:1001E000C50326E040E855E260E070E080E192E07F
:1001F0000C94E305CF92DF92EF92FF920F931F933F
:100200000E942A04672B682B692B41F40E942A0460
:10021000623071058105910508F476C00E942A04B8
:100220006093C8017093C9018093CA019093CB0178
:100230000091CC011091CD012091CE013091CF01E0
:10024000601771078207930740F46093CC017093A5
:10025000CD018093CE019093CF010091CC011091FC
:10026000CD012091CE013091CF016B017C01C01AEC
:10027000D10AE20AF30A970186010A3F1105210516
:10028000310508F441C06093CC017093CD01809397
:10029000CE019093CF0180ED91E00E94440363E290
:1002A00071E080910102909102020E9438076BE296
:1002B00071E080910102909102020E9438070E9431
:1002C0002A04AB01BC012AE030E080910102909148
:1002D00002020E94E8076DE271E0809101029091B4
:1002E00002020E94380762E070E080E090E00E9425
:1002F00059046AE070E080E090E00E94590461E0F7
:1003000080ED91E00E9487030E948300AB01BC0155
:1003100022E030E080E192E00E94E70880E48093F0
:100320007C0080917C008E6080937C008AEF90E05E
:100330000E94810480917A00806480937A00809189
:100340007A0086FDFCCF209178003091790021154C
:10035000310569F040E050E064EB7BE281E190E040
:100360000E943B0BCA01B9010E94FE0904C060E073
:1003700070E080E89FEB20E030E04AE754E40E9420
:100380006309AB01BC0122E030E080E192E01F9103
:100390000F91FF90EF90DF90CF900C94E70862E010
:1003A0008AEB91E00E94E70247E068E08AEA91E088
:1003B0000C940A03FF920F931F93CF93DF93FC01DA
:1003C0000081C181D281F8948981F02EF0948F212F
:1003D000898378941DE7115029F182E090E00E9412
:1003E000810488818023B9F3F8948A818F218A83DC
:1003F0008981802B8983789480EE91E00E9481042A
:10040000F89489818F21898386E490E00E94810499
:100410008881802311E009F010E078948AE991E066
:100420000E948104812FDF91CF911F910F91FF9046
:1004300008951F93CF93DF93FC011081C181D28176
:10044000912F909560FF12C0F8948A8189238A8346
:100450008981812B89838AE090E00E9481048A81CE
:10046000812B8A83789487E390E011C0F8948A8185
:1004700089238A838981812B898381E490E00E948A
:1004800081048A81812B8A83789485E090E0DF91D2
:10049000CF911F910C9481040F931F93CF93DF93FF
:1004A000FC011081C181D281F8948981812B8983DB
:1004B0008A81012F009580238A8383E090E00E9447
:1004C00081048981802389838AE090E00E948104ED
:1004D000C881789485E390E00E9481041C2381E028
:1004E00009F480E0DF91CF911F910F910895CF9291
:1004F000DF92EF92FF920F931F93CF93DF931F92A0
:10050000CDB7DEB76C01E62E08E010E0FF24F394CF
:1005100061E09F2D9E2109F460E0C60149830E949D
:100520001902FF0C0150110949810115110581F7CC
:10053000411115C0F894D6011196ED91FC911297D6
:1005400091818C918095892381831196ED91FC9105
:10055000129792818C9180958923828378940F9051
:10056000DF91CF911F910F91FF90EF90DF90CF908F
:100570000895EF92FF920F931F93CF93DF938C0117
:10058000C8E0D0E0F12CEE24E394C8010E944C02B4
:100590008111FE28EE0C2197C1F78F2DDF91CF91AD
:1005A0001F910F91FF90EF900895FC01138615861F
:1005B000148627E030E0DF01A20FB31F13961C92D0
:1005C0002115310519F021503109F5CF08951F93F8
:1005D000CF93DF93EC01162F60E0812F0E94C704B8
:1005E000612F70E0FB01E859FF4FE491E883FB01C4
:1005F000E458FF4FE491F0E0EE0FFF1FE057FF4F8C
:10060000859194919A838983CE01DF91CF911F9137
:100610000C94D502FC01608341831282138280E234
:10062000848315821682108611861286138614869C
:1006300015861686178608950F931F93CF93DF9321
:10064000EC01662359F00E942A0469837A838B8324
:100650009C83DF91CF911F910F9108950E942A04EE
:1006600009811A812B813C81601B710B820B930BDA
:10067000693171058105910530F763E070E080E034
:1006800090E00E945904EACF60E00C941C03FC0146
:1006900013AA14AA15AA16AA11821282138214820E
:1006A000411551056105710521F0CB01BA010C948A
:1006B00059040895FB01BA01A901DC01D296FC930B
:1006C000EE93D19726E0CF010C94E3051F93CF93CF
:1006D000DF93EC01162F66E371E089A99AA90E94C5
:1006E00038074AE050E0612F89A99AA90E94F507CE
:1006F0006DE371E089A99AA90E94380762E370E06E
:1007000080E090E0DF91CF911F910C9459041F93EA
:10071000CF93DF93EC01162F8D81882389F189A96E
:100720009AA9DC01ED91FC910480F581E02D0995F9
:10073000892BA9F307C02637310519F12835310572
:1007400009F41D8289A99AA9DC01ED91FC9104802C
:10075000F581E02D09951816190694F489A99AA92E
:10076000DC01ED91FC910680F781E02D09959C015B
:10077000332723363105F9F6612FCE010E94660337
:1007800083E6DF91CF911F9108950F931F93CF932D
:10079000DF931F92CDB7DEB78C01662349F081E06D
:1007A000F801858360E0C80149830E94870349817D
:1007B000F80145830F90DF91CF911F910F9108951C
:1007C0001F920F920FB60F9211242F933F938F9386
:1007D0009F93AF93BF938091080290910902A091DB
:1007E0000A02B0910B023091070223E0230F2D374C
:1007F00020F40196A11DB11D05C026E8230F029625
:10080000A11DB11D20930702809308029093090255
:10081000A0930A02B0930B0280910C0290910D02FA
:10082000A0910E02B0910F020196A11DB11D8093FF
:100830000C0290930D02A0930E02B0930F02BF9191
:10084000AF919F918F913F912F910F900FBE0F907D
:100850001F9018952FB7F8946091080270910902C3
:1008600080910A0290910B022FBF08953FB7F89430
:1008700080910C0290910D02A0910E02B0910F0296
:1008800026B5A89B05C02F3F19F00196A11DB11DEB
:100890003FBF6627782F892F9A2F620F711D811D08
:1008A000911D42E0660F771F881F991F4A95D1F767
:1008B0000895CF92DF92EF92FF92CF93DF936B0177
:1008C0007C010E943604EB01C114D104E104F1045F
:1008D00089F00E94F9080E9436046C1B7D0B683E6B
:1008E000734090F381E0C81AD108E108F108C851BB
:1008F000DC4FEACFDF91CF91FF90EF90DF90CF9068
:1009000008958230910538F0880F991F880F991F3C
:1009100005970197F1F70895789484B5826084BDB6
:1009200084B5816084BD85B5826085BD85B58160F3
:1009300085BDEEE6F0E0808181608083E1E8F0E053
:100940001082808182608083808181608083E0E882
:10095000F0E0808181608083E1EBF0E08081846061
:100960008083E0EBF0E0808181608083EAE7F0E063
:1009700080818460808380818260808380818160C7
:1009800080838081806880831092C1000895CF9316
:10099000DF9390E0FC01E859FF4F2491FC01E458FB
:1009A000FF4F8491882349F190E0880F991FFC0143
:1009B000EC55FF4FA591B49186569F4FFC01C59110
:1009C000D4919FB7611108C0F8948C91209582232F
:1009D0008C93888182230AC0623051F4F8948C9100
:1009E000322F309583238C938881822B888304C097
:1009F000F8948C91822B8C939FBFDF91CF910895B7
:100A0000FC01818D228D90E0805C9F4F821B9109BB
:100A10008F7399270895FC01918D828D981731F07D
:100A2000828DE80FF11D858D90E008958FEF9FEF87
:100A30000895FC01918D828D981761F0828DDF0100
:100A4000A80FB11D5D968C91928D9F5F9F73928FC1
:100A500090E008958FEF9FEF08958DE996E0892B40
:100A600049F080E090E0892B29F00E949D068111D9
:100A70000C9400000895FC01848DDF01A80FB11DC6
:100A8000A35ABF4F2C91848D90E001968F739927C4
:100A9000848FA689B7892C93A089B1898C918064B1
:100AA0008C93938D848D981306C00288F389E02D72
:100AB00080818F7D80830895CF93DF93EC01888DB3
:100AC0008823C9F0EA89FB89808185FD05C0A88952
:100AD000B9898C9186FD0FC00FB607FCF5CF8081D8
:100AE00085FFF2CFA889B9898C9185FFEDCFCE0122
:100AF0000E943B05E7CFDF91CF910895CF92DF921F
:100B0000FF920F931F93CF93DF931F92CDB7DEB762
:100B10006C0181E0D60158968C9358975B969C9116
:100B20005B975C968C915C97981307C05096ED91FB
:100B3000FC915197808185FD2EC0F601038D10E058
:100B40000F5F1F4F0F731127F02EF601848DF812DF
:100B500011C00FB607FCF9CFD6015096ED91FC916C
:100B60005197808185FFF1CFC60169830E943B05C3
:100B70006981EBCF838DE80FF11DE35AFF4F60834E
:100B8000D6015B960C935B975296ED91FC9153972F
:100B9000808180620CC0D6015696ED91FC915797EA
:100BA00060835096ED91FC915197808180648083A1
:100BB00081E090E00F90DF91CF911F910F91FF9016
:100BC000DF90CF900895BF92CF92DF92EF92FF9285
:100BD000CF93DF93EC016A017B01B22EE889F9899A
:100BE00082E08083411581EE580761057105A1F00F
:100BF00060E079E08DE390E0A70196010E94190B77
:100C00002150310941095109569547953795279546
:100C1000211580E1380798F0E889F989108260E8A9
:100C200074E88EE190E0A70196010E94190B215013
:100C30003109410951095695479537952795EC8516
:100C4000FD853083EE85FF852083188EEC89FD8934
:100C5000B082EA89FB89808180618083EA89FB898F
:100C6000808188608083EA89FB89808180688083B5
:100C7000EA89FB8980818F7D8083DF91CF91FF900E
:100C8000EF90DF90CF90BF9008951F920F920FB614
:100C90000F9211242F938F939F93EF93FF93E091E3
:100CA0002002F09121028081E0912602F09127023A
:100CB00082FD12C09081809129028F5F8F732091F5
:100CC0002A02821751F0E0912902F0E0E05FFD4F27
:100CD000958F8093290201C08081FF91EF919F91B0
:100CE0008F912F910F900FBE0F901F9018951F920C
:100CF0000F920FB60F9211242F933F934F935F9350
:100D00006F937F938F939F93AF93BF93EF93FF93D3
:100D100080E192E00E943B05FF91EF91BF91AF917E
:100D20009F918F917F916F915F914F913F912F9103
:100D30000F900FBE0F901F90189580E192E00E94D7
:100D4000000521E0892B09F420E0822F08951092FC
:100D500013021092120288EE93E0A0E0B0E08093BC
:100D6000140290931502A0931602B093170282E921
:100D700091E0909311028093100285EC90E09093A3
:100D80001D0280931C0284EC90E090931F028093DC
:100D90001E0280EC90E0909321028093200281EC6F
:100DA00090E0909323028093220282EC90E0909353
:100DB00025028093240286EC90E090932702809392
:100DC00026021092290210922A0210922B021092EF
:100DD0002C02089508950E948C040E94EA060E9445
:100DE000C700CDE2D5E00E94FA002097E1F30E940F
:100DF0002D05F9CFCF92DF92EF92FF920F931F93C1
:100E0000CF93DF936C017A01EB01E60EF71E00E051
:100E100010E0CE15DF0561F06991D601ED91FC91EE
:100E20000190F081E02DC6010995080F191FF1CF3F
:100E3000C801DF91CF911F910F91FF90EF90DF904C
:100E4000CF9008956115710581F0DB010D900020B0
:100E5000E9F7AD0141505109461B570BDC01ED91FB
:100E6000FC910280F381E02D099480E090E00895E8
:100E70000C942207DC01ED91FC910190F081E02DB2
:100E8000099463E471E00C9422078F929F92AF92D1
:100E9000BF92CF92DF92EF92FF920F931F93CF9367
:100EA000DF93CDB7DEB7A1970FB6F894DEBF0FBEC4
:100EB000CDBF7C01C42EE52FCB01D22E19A221E09B
:100EC0002D1510F02AE0D22E8E010F5D1F4F8D2CB4
:100ED000912CA12CB12C6C2D7E2FA50194010E9488
:100EE000190B8C2DD29E80191124015011098A30C2
:100EF00014F4805D01C0895CF801808321153105FF
:100F00004105510521F0C22EE32FCA01E4CFB801FB
:100F1000C7010E942207A1960FB6F894DEBF0FBE4C
:100F2000CDBFDF91CF911F910F91FF90EF90DF9098
:100F3000CF90BF90AF909F908F900895CF92DF9207
:100F4000EF92FF920F931F93CF93DF93EC016A010F
:100F50007B012115310579F4E881F9810190F08157
:100F6000E02D642FDF91CF911F910F91FF90EF90B3
:100F7000DF90CF9009942A303105E9F477FF1AC049
:100F80006DE20E943A078C0144275527BA014C199B
:100F90005D096E097F092AE0CE010E944507800F96
:100FA000911FDF91CF911F910F91FF90EF90DF90F4
:100FB000CF9008952AE0B701A601CE01DF91CF912D
:100FC0001F910F91FF90EF90DF90CF900C94450709
:100FD0002115310541F4DC01ED91FC910190F08186
:100FE000E02D642F09940C9445079A01462F50E098
:100FF00060E070E00C94E8074F925F926F927F92EE
:101000008F929F92AF92BF92CF92DF92EF92FF9218
:101010000F931F93CF93DF93EC016A017B01B22EF4
:101020009A01AB01C701B6010E94150B882319F084
:101030006EE971E027C026013701E89477F82FEFB9
:101040003FEF4FE75FE7C301B2010E94150B81112B
:101050000DC02FEF3FEF4FE75FE7C301B2010E94E2
:101060005F0918161CF462EA71E00CC02FEF3FEF25
:101070004FE75FE4C701B6010E94AE0A1816ACF450
:1010800066EA71E0CE01DF91CF911F910F91FF9041
:10109000EF90DF90CF90BF90AF909F908F907F9018
:1010A0006F905F904F900C9422072FEF3FEF4FE728
:1010B0005FECC701B6010E945F0987FDE1CF20E028
:1010C00030E0A901C701B6010E945F0987FF0AC08D
:1010D0006DE2CE010E943A078C01F7FAF094F7F81E
:1010E000F09402C000E010E0A12C60E070E080E02D
:1010F0009FE3AB1441F020E030E040E251E40E9475
:101100006309A394F6CF9B01AC01C701B6010E940D
:10111000FB086B017C010E94D0092B013C010E945D
:10112000FC099B01AC01C701B6010E94FA086B01E2
:101130007C012AE0B301A201CE010E944507080FFD
:10114000191FBB2039F06FE071E0CE010E94220729
:10115000080F191F7B2C772041F120E030E040E29E
:1011600051E4C701B6010E94B20A6B017C010E94E2
:10117000CB094B01AA2497FCA094BA2C2AE030E0BA
:10118000B501A401CE010E949E07080F191FC501D9
:10119000B4010E94FE099B01AC01C701B6010E9487
:1011A000FA086B017C017A94D6CFC801DF91CF9108
:1011B0001F910F91FF90EF90DF90CF90BF90AF9075
:1011C0009F908F907F906F905F904F9008950F93B6
:1011D0001F93CF93DF93EC010E94FC078C01CE019B
:1011E0000E944107800F911FDF91CF911F910F91B6
:1011F000089508955058BB27AA270ED075C166D10F
:1012000030F06BD120F031F49F3F11F41EF45BC13C
:101210000EF4E095E7FB51C1E92F77D180F3BA17BF
:10122000620773078407950718F071F49EF58FC164
:101230000EF4E0950B2EBA2FA02D0B01B9019001F1
:101240000C01CA01A0011124FF27591B99F0593F35
:1012500050F4503E68F11A16F040A22F232F342F7D
:101260004427585FF3CF469537952795A795F040CB
:101270005395C9F77EF41F16BA0B620B730B840BE0
:10128000BAF09150A1F0FF0FBB1F661F771F881F98
:10129000C2F70EC0BA0F621F731F841F48F48795F0
:1012A00077956795B795F7959E3F08F0B3CF9395DF
:1012B000880F08F09927EE0F979587950895D9D054
:1012C00008F481E008950CD00FC107D140F0FED0A2
:1012D00030F021F45F3F19F0F0C0511139C1F3C073
:1012E00014D198F39923C9F35523B1F3951B550BEA
:1012F000BB27AA2762177307840738F09F5F5F4FE9
:10130000220F331F441FAA1FA9F333D00E2E3AF029
:10131000E0E830D091505040E695001CCAF729D043
:10132000FE2F27D0660F771F881FBB1F2617370792
:101330004807AB07B0E809F0BB0B802DBF01FF27C2
:1013400093585F4F2AF09E3F510568F0B6C000C128
:101350005F3FECF3983EDCF3869577956795B795FC
:10136000F7959F5FC9F7880F911D9695879597F917
:101370000895E1E0660F771F881FBB1F6217730790
:101380008407BA0720F0621B730B840BBA0BEE1FA5
:1013900088F7E095089504D06894B111D9C00895F4
:1013A000BCD088F09F5790F0B92F9927B751A0F083
:1013B000D1F0660F771F881F991F1AF0BA95C9F7E9
:1013C00012C0B13081F0C3D0B1E00895C0C0672F22
:1013D000782F8827B85F39F0B93FCCF38695779599
:1013E0006795B395D9F73EF4909580957095619582
:1013F0007F4F8F4F9F4F0895E89409C097FB3EF4AD
:1014000090958095709561957F4F8F4F9F4F992351
:10141000A9F0F92F96E9BB279395F69587957795CF
:101420006795B795F111F8CFFAF4BB0F11F460FF8F
:101430001BC06F5F7F4F8F4F9F4F16C0882311F0E7
:1014400096E911C0772321F09EE8872F762F05C0FB
:10145000662371F096E8862F70E060E02AF09A9596
:10146000660F771F881FDAF7880F9695879597F98B
:101470000895990F0008550FAA0BE0E8FEEF161625
:101480001706E807F907C0F012161306E407F50778
:1014900098F0621B730B840B950B39F40A2661F0EC
:1014A000232B242B252B21F408950A2609F4A1408F
:1014B000A6958FEF811D811D089597F99F6780E89C
:1014C00070E060E008959FEF80EC089500240A9496
:1014D0001616170618060906089500240A9412160F
:1014E0001306140605060895092E0394000C11F442
:1014F000882352F0BB0F40F4BF2B11F460FF04C0EF
:101500006F5F7F4F8F4F9F4F089557FD9058440F47
:10151000551F59F05F3F71F04795880F97FB991F52
:1015200061F09F3F79F0879508951216130614060F
:10153000551FF2CF4695F1DF08C01616170618069C
:10154000991FF1CF86957105610508940895E89477
:10155000BB2766277727CB0197F908958ADF08F420
:101560008FEF08950BD0C0CFB1DF28F0B6DF18F0B1
:10157000952309F0A2CFA7CF1124EACFC6DFA0F3AD
:10158000959FD1F3950F50E0551F629FF001729F18
:10159000BB27F00DB11D639FAA27F00DB11DAA1F37
:1015A000649F6627B00DA11D661F829F2227B00D84
:1015B000A11D621F739FB00DA11D621F839FA00D0F
:1015C000611D221F749F3327A00D611D231F849F5F
:1015D000600D211D822F762F6A2F11249F575040B6
:1015E0008AF0E1F088234AF0EE0FFF1FBB1F661F51
:1015F000771F881F91505040A9F79E3F510570F00A
:101600005CCFA6CF5F3FECF3983EDCF386957795F1
:101610006795B795F795E7959F5FC1F7FE2B880F04
:10162000911D9695879597F9089523DF880B990B5F
:101630000895A1E21A2EAA1BBB1BFD010DC0AA1F13
:10164000BB1FEE1FFF1FA217B307E407F50720F02B
:10165000A21BB30BE40BF50B661F771F881F991FA6
:101660001A9469F760957095809590959B01AC01EF
:10167000BD01CF010895052E97FB1EF400940E9432
:10168000520B57FD07D00E94190B07FC03D04EF4F4
:101690000C94520B50954095309521953F4F4F4FEC
:1016A0005F4F089590958095709561957F4F8F4F0E
:1016B0009F4F0895EE0FFF1F0590F491E02D0994C0
:0416C000F894FFCFCC
:1016C400546F6F20626967206E756D207061722E91
:1016D40000564D4450565F317C315F564D44505650
:1016E4000D0A00564D4450455F31007C005F564D55
:1016F4004450450D0A00564D4450435F005F564D1B
:101704004450430D0A004572726F723A204174745A
:10171400656D707420746F20736574206120726528
:1017240061642D6F6E6C79207661726961626C659B
:10173400206F7220646174612074797065206E6F0B
:101744007420737570706F727465640D0A00000004
:1017540000007E05FA06000519050B055C056E619F
:0A1764006E00696E66006F76660085
:00000001FF
