:100000000C946C000C94E1090C940E0A0C9494006E
:100010000C9494000C9494000C9494000C94940010
:100020000C9494000C9494000C9494000C94940000
:100030000C9494000C9494000C9494000C949400F0
:100040000C943B0A0C9494000C94FF0C0C94310D0E
:100050000C9494000C9494000C9494000C949400D0
:100060000C9494000C9494001112131415160A0B9E
:100070000C0D0E0F00010203040500000008000231
:10008000010000030407000000000000000001025E
:100090000408102040800102040810200102040816
:1000A00010200404040404040404020202020202F4
:1000B00003030303030300000000230026002900BC
:1000C00000000000250028002B0000000000240094
:1000D00027002A002803610D11241FBECFEFD8E0AE
:1000E000DEBFCDBF11E0A0E0B1E0EEE6F4E202C079
:1000F00005900D92AC3FB107D9F723E0ACEFB1E02A
:1001000001C01D92A730B207E1F710E0C8EDD0E0C2
:1001100004C02297FE010E942812C43DD107C9F7EE
:100120000E94A50D0C9435120C94000060910E02F3
:1001300081E0682760930E0280914B010C94840B40
:10014000CF938FE092E00E94330340E06CEC8FE0AD
:1001500092E00E94D00340E064E48FE092E00E94CD
:10016000D00368EE73E080E090E00E94B40A8FE074
:1001700092E00E94330340E06CEC8FE092E00E943A
:10018000D00340E06EEB8FE092E00E94D0038FE05E
:1001900092E00E941204C82F8FE092E00E941204A5
:1001A000682F70E0762F66276C0F711D882777FD0A
:1001B0008095982F0E94CA1020E030E040E85DE36F
:1001C0000E947E11CF910895CF93C1E0C0930001AA
:1001D0000E94A000609301017093020180930301CB
:1001E00090930401C093190180E480937C00809176
:1001F0007C008E6080937C008AEF90E00E94DC0A95
:1002000080917A00806480937A0080917A0086FDE4
:10021000FCCF20917800309179002115310569F0EB
:1002200040E050E064EB7BE281E190E00E94071245
:10023000CA01B9010E94CA1004C060E070E080E801
:100240009FEB20E030E04AE754E40E942F106093D7
:100250001A0170931B0180931C0190931D0181E092
:100260008093320160910E0270E080E090E00E9485
:10027000C8106093330170933401809335019093DB
:10028000360181E0CF910895CF93DF93EC0118827E
:1002900019821A821B821C82623099F068F46130E4
:1002A00009F04AC0688340E050E060E470E44983AC
:1002B0005A836B837C8340C0633039F06430A9F08B
:1002C0003BC00E94E400888337C00E94960081E012
:1002D000888360910E0270E080E090E00E94C81078
:1002E00069837A838B839C8327C0872F90E0833038
:1002F000910524F084E1EDE4F1E018C029E1289FA4
:10030000F001299FF00D1124DF01A050BF4F8C9107
:10031000888311964D915D916D917C9114974983DD
:100320005A836B837C83EB5FFE4F84E1DE0115967D
:1003300001900D928A95E1F7CE01DF91CF9108955A
:10034000CF93DF93CDB7DEB7E4970FB6F894DEBF57
:100350000FBECDBF8CEF91E00E947A068823E9F0B2
:1003600042E0BE01665E7F4F8CEF91E00E947E0608
:100370006A8D7B8DCE014C960E94440189E1FE017D
:100380007C96DE01119601900D928A95E1F76EE55B
:1003900071E08AE692E00E94FF0D8CEF91E00E94EE
:1003A000D00549E1BE016F5F7F4F8CEF91E00E9465
:1003B00059068CEF91E00E945207E4960FB6F8942C
:1003C000DEBF0FBECDBFDF91CF910895EF92FF92B8
:1003D0000F931F93CF93DF9340ED57E060E070E001
:1003E00086E292E00E94280920E835E240E050E0F1
:1003F0006AE672E086E292E00E943B0986E292E0C1
:100400000E94250963E671E080915702909158029D
:100410000E94F20D6AE070E080E090E00E94B40A71
:1004200041E060E086E292E00E94A60926E040E812
:1004300055E260E070E08AE692E00E949D0CCBE419
:10044000D1E061E088810E944B0B60910E028881AF
:100450000E94840B40E050E060EA71E080E00E947E
:10046000C1091092000110921901109232018CEF13
:1004700091E00E9431088CEF91E00E94B3078CEF6D
:1004800091E00E94980762E38CEF91E00E94C90519
:100490004FE06FE08CEF91E00E94BE0861E070E0F9
:1004A0008CEF91E00E94EF0762E08CEF91E00E94F8
:1004B000D60761E08CEF91E00E94CE0762E070E029
:1004C0008CEF91E00E94A20802EE10EF20EF30EFD7
:1004D00040EF50E060E070E08CEF91E00E948A060F
:1004E00091EEE92E20EFF22E00EF20EF30E040E019
:1004F00050E061E08CEF91E00E94C5068CEF91E046
:10050000DF91CF911F910F91FF90EF900C945207C4
:10051000CF92DF92EF92FF920F931F930E94850A72
:10052000672B682B692B41F40E94850A62307105A4
:100530008105910508F476C00E94850A60931D022A
:1005400070931E0280931F0290932002009121025B
:10055000109122022091230230912402601771072A
:100560008207930740F460932102709322028093E4
:1005700023029093240200912102109122022091E3
:100580002302309124026B017C01C01AD10AE20AD5
:10059000F30A970186010A3F11052105310508F488
:1005A00041C06093210270932202809323029093B2
:1005B000240286E292E00E94250965E771E08091BD
:1005C0005702909158020E94F20D6DE771E0809100
:1005D0005702909158020E94F20D0E94850AAB01C9
:1005E000BC012AE030E080915702909158020E94AD
:1005F000B40E6FE771E080915702909158020E940B
:10060000F20D62E070E080E090E00E94B40A6AE0DF
:1006100070E080E090E00E94B40A61E086E292E03F
:100620000E9468090E94A0014091010150910201BD
:10063000609103017091040122E030E08AE692E0CB
:100640001F910F91FF90EF90DF90CF900C94B30F1C
:1006500063E08FE092E00E94400447E068E08CEFA6
:1006600091E00C94BE05FF920F931F93CF93DF93FD
:10067000FC010081C181D281F8948981F02EF0942F
:100680008F21898378941DE7115029F182E090E051
:100690000E94DC0A88818023B9F3F8948A818F2133
:1006A0008A838981802B8983789480EE91E00E94EF
:1006B000DC0AF89489818F21898386E490E00E9486
:1006C000DC0A8881802311E009F010E078948AE93F
:1006D00091E00E94DC0A812FDF91CF911F910F9151
:1006E000FF9008951F93CF93DF93FC011081C18188
:1006F000D281912F909560FF12C0F8948A8189234E
:100700008A838981812B89838AE090E00E94DC0AB8
:100710008A81812B8A83789487E390E011C0F894D2
:100720008A8189238A838981812B898381E490E06E
:100730000E94DC0A8A81812B8A83789485E090E08C
:10074000DF91CF911F910C94DC0A0F931F93CF93ED
:10075000DF93FC011081C181D281F8948981812BC2
:1007600089838A81012F009580238A8383E090E02A
:100770000E94DC0A8981802389838AE090E00E94BC
:10078000DC0AC881789485E390E00E94DC0A1C238F
:1007900081E009F480E0DF91CF911F910F910895DE
:1007A000CF92DF92EF92FF920F931F93CF93DF933D
:1007B0001F92CDB7DEB76C01E62E08E010E0FF24F3
:1007C000F39461E09F2D9E2109F460E0C601498306
:1007D0000E947203FF0C0150110949810115110596
:1007E00081F7411115C0F894D6011196ED91FC9155
:1007F000129791818C918095892381831196ED9137
:10080000FC91129792818C918095892382837894B0
:100810000F90DF91CF911F910F91FF90EF90DF909C
:10082000CF900895EF92FF920F931F93CF93DF9392
:100830008C01C8E0D0E0F12CEE24E394C8010E94C2
:10084000A5038111FE28EE0C2197C1F78F2DDF91B2
:10085000CF911F910F91FF90EF900895FC011386A7
:100860001586148627E030E0DF01A20FB31F139630
:100870001C922115310519F021503109F5CF089549
:100880001F93CF93DF93EC01162F60E0812F0E941E
:100890004B0B612F70E0FB01E257FF4FE491E883BF
:1008A000FB01EE55FF4FE491F0E0EE0FFF1FEA541D
:1008B000FF4F859194919A838983CE01DF91CF91E7
:1008C0001F910C942E048EBD00000DB407FEFDCFC9
:1008D0008EB508952CB52F7D2CBD2CB5237F2CBD56
:1008E0002CB52C7F2CBD2DB521602DBDFC01818147
:1008F0000E94840B85E090E00C94DC0AFC0180816E
:10090000918189130C94840B089560E00C946A041F
:1009100061E00C946A04EF92FF921F93CF93DF93F0
:100920001F92CDB7DEB77C0169830E94850469817F
:10093000862F8F710E9463048FEF0E946304182F2B
:10094000C7010E948804812F0F90DF91CF911F91E2
:10095000FF90EF900895CF92DF92EF92FF920F9366
:100960001F93CF93DF9300D01F92CDB7DEB78C01DA
:10097000F22E4A835B8369830E9485046981862FF6
:100980008F7180620E946304E82E4A81C42E5B81CD
:10099000D52EF40EFC1431F0F60181916F010E9406
:1009A0006304F8CFC8010E9488048E2D0F900F9029
:1009B0000F90DF91CF911F910F91FF90EF90DF90FB
:1009C000CF900895EF92FF921F93CF93DF9300D0C3
:1009D000CDB7DEB77C014A8369830E9485046981B3
:1009E000862F8F7180620E946304182F4A81842FA2
:1009F0000E946304C7010E948804812F0F900F900A
:100A0000DF91CF911F91FF90EF900895AF92BF9229
:100A1000DF92EF92FF920F931F93CF93DF9300D05B
:100A20001F92CDB7DEB78C01FC01E580F42EE416F1
:100A300008F4FE2CF8018681811102C0EF1801C074
:100A4000E12CC80129836A837B830E948504298164
:100A5000822F0E946304D82E6A81A62E7B81B72E36
:100A6000F60EFA1431F0F50181915F010E946304E2
:100A7000F8CFEE2029F080E00E946304EA94F9CFD9
:100A8000C8010E9488048D2D0F900F900F90DF9168
:100A9000CF911F910F91FF90EF90DF90BF90AF909B
:100AA0000895AF92BF92DF92EF92FF920F931F9340
:100AB000CF93DF9300D0CDB7DEB78C01FC01E5808A
:100AC000F42EE41608F4FE2CF8018681811102C090
:100AD000EF1801C0E12CC80169837A830E94850464
:100AE00081E60E946304D82E6981A62E7A81B72EF2
:100AF000F60EFA1439F08FEF0E946304F50181932A
:100B00005F01F7CFEE2029F08FEF0E946304EA9493
:100B1000F9CFC8010E9488048D2D0F900F90DF91AE
:100B2000CF911F910F91FF90EF90DF90BF90AF900A
:100B30000895EF92FF921F93CF93DF931F92CDB74B
:100B4000DEB77C0169830E9485046981862F0E943B
:100B50006304182FC7010E948804812F0F90DF9132
:100B6000CF911F91FF90EF90089562EE0C9499053C
:100B700061EE0C9499056FEF0C949905FC0160836C
:100B80004183148280E28583168285E08487178200
:100B90000895462F6E3708F04DE765E00C94E204A7
:100BA000CF93DF93EC0160E00E947E048D859E85EB
:100BB0000E94DC0A6DE1CE010E948B0481FF07C018
:100BC0008D859E850E94DC0ACE010E94B80560E0FA
:100BD000CE010E948B04482F4E7F60E0CE010E9420
:100BE000E20462E0CE010E948B04E4E7F0E0E491CD
:100BF00021E030E001C0220FEA95EAF7822B482F6E
:100C000062E0CE01DF91CF910C94E204CF93DF93A9
:100C1000EC0160E00E948B0481FD0EC0482F426011
:100C200060E0CE010E94E20465E070E080E090E0C8
:100C3000DF91CF910C94B40ADF91CF9108950F9377
:100C4000CF93DF93EC01222311F020EB01C020EAC7
:100C5000CE010E940605002339F061E0CE01DF914C
:100C6000CF910F910C947E04DF91CF910F91089555
:100C70000F93CF93DF93EC0101E00E941F06CE019A
:100C80000E94BB058073D9F360E0CE010E947E0410
:100C900040E767E0CE010E94E20484FF05C0CE0178
:100CA0000E94B80580E001C081E0DF91CF910F91F3
:100CB000089520E00C9438060F931F93CF93DF9391
:100CC0008C01EB0167E10E948B0480FD0BC0209733
:100CD00059F0C8010E94BB0590E0959587958770F3
:100CE000888302C080E001C081E0DF91CF911F9135
:100CF0000F91089560E070E00C945C06CF93DF9351
:100D0000EC010E94510540E767E0CE01DF91CF91F1
:100D10000C94E204EF92FF920F931F93CF93DF9313
:100D2000CDB7DEB728970FB6F894DEBF0FBECDBFA4
:100D30007C0109831A832B833C834D835E836F83FD
:100D40007887FC012485AE014F5F5F4F6AE00E9407
:100D5000AB04F7012485AE014F5F5F4F60E1C7012F
:100D60000E94AB04F701458161E1C7010E94E204E2
:100D700028960FB6F894DEBF0FBECDBFDF91CF919E
:100D80001F910F91FF90EF900895BF92CF92DF9245
:100D9000EF92FF920F931F93CF93DF93CDB7DEB700
:100DA00028970FB6F894DEBF0FBECDBF6C01B62EEC
:100DB000E982FA820B831C832D833E834F835887FD
:100DC00061110AC0FC01448550E0BE016F5F7F4F96
:100DD00007960E942C1207C0F6E0F61708F436C0FA
:100DE00081E0681308C0EB2DF0E0E259FF4F6491F9
:100DF000F601248506C0E62FF0E0E259FF4F64912A
:100E000021E0AE014F5F5F4FC6010E94AB040B2D86
:100E100010E0F801E859FF4F6491F6014581C601E1
:100E20000E94E20462E0C6010E948B04F801EC58C3
:100E3000FF4F049121E030E001C0220F0A95EAF74C
:100E4000822B482F62E0C6010E94E20428960FB66A
:100E5000F894DEBF0FBECDBFDF91CF911F910F91F0
:100E6000FF90EF90DF90CF90BF9008951F93CF93A6
:100E7000DF93EC01162F62E00E948B04E12FF0E07B
:100E8000EC58FF4FE49141E050E001C0440FEA9577
:100E9000EAF74095482362E0CE01DF91CF911F91A0
:100EA0000C94E204CF93DF93EC010E94060660E00D
:100EB000CE010E948B04482F416060E0CE010E9469
:100EC000E20440E767E0CE010E94E20461E0CE0167
:100ED0000E947E048F81882349F02C85AE01495FF2
:100EE0005F4F6AE0CE010E94AB0404C060E0CE0117
:100EF0000E9436076DE1CE010E948B0481FF05C080
:100F0000CE01DF91CF910C94B805DF91CF91089578
:100F1000CF93DF93EC010E94850480E50E94630477
:100F200083E70E946304CE01DF91CF910C94880483
:100F3000CF93DF93EC016DE10E948B04482F446056
:100F40006DE1CE010E94E2046CE1CE010E948B04AF
:100F5000482F4F636CE1CE010E94E20481E08E8352
:100F6000DF91CF910895CF93DF93EC016DE10E9463
:100F70008B04482F46606DE1CE010E94E2046CE1D3
:100F8000CE010E948B04482F43606CE1CE010E9489
:100F9000E20481E08E83DF91CF910895662311F002
:100FA0004FE301C040E061E00C94E2041F93CF9353
:100FB000DF93EC01162F66E00E948B04887F1430CB
:100FC00020F4612F660F6F5F01C067E0462F482B4A
:100FD00066E0CE01DF91CF911F910C94E204EF9275
:100FE000FF920F931F93CF93DF931F92CDB7DEB77E
:100FF0007C018B0166E00E948B04582F577D0230E4
:10100000110531F450620BE910E020E030E00DC032
:101010000130110529F005E510E020E030E005C0C1
:10102000586001E410E020E030E0F7010587168702
:101030002787308B452F66E0C70159830E94E20461
:1010400066E0C7010E948B0491E05981851390E00E
:10105000892F0F90DF91CF911F910F91FF90EF900B
:1010600008951F93CF93DF93EC01888199818917AD
:1010700019F061E00E944B0B89819881981719F053
:1010800061E00E944B0B0E94C70860E0CE010E9405
:101090007E0461E0CE010E946A0465E070E080E0B9
:1010A00090E00E94B40A4CE060E0CE010E94E204AD
:1010B0004FE564E0CE010E94E20462E070E0CE0100
:1010C0000E94EF07882311F081E08C8366E0CE0157
:1010D0000E948B04182F60E070E0CE010E94EF07A1
:1010E000CE010E94880740E06DE1CE010E94E2043B
:1010F00040E06CE1CE010E94E20440E767E0CE01EF
:101100000E94E2046CE4CE010E94C905CE010E9457
:10111000B505CE010E94B805CE010E94060660E02A
:10112000CE010E948B04482F4E7F60E0CE010E94CA
:10113000E204115081E01E3F08F080E0DF91CF9182
:101140001F9108950F931F93CF93DF93EC018B01B1
:1011500060E00E948B04482F437F0115110531F098
:101160000130110511F4486001C04C6060E0CE010F
:10117000DF91CF911F910F910C94E20420E1629FC7
:10118000B00111244F70462B64E00C94E204CF931D
:10119000CFB7F89480912502811127C0ECEAF0E0E6
:1011A0008491E8E9F0E09491E82FF0E0EE0FFF1F62
:1011B000E653FF4FA591B4918C91892321F461E00E
:1011C0008AE00E94840B61E08AE00E944B0B8CB5A0
:1011D00080618CBD8CB580648CBD61E08DE00E9427
:1011E0004B0B61E08BE00E944B0B809125028F5FDF
:1011F00080932502CFBFCF9108950F931F93CF9374
:10120000DF93EC01662359F00E94850A69837A8393
:101210008B839C83DF91CF911F910F9108950E9442
:10122000850A09811A812B813C81601B710B820B1D
:10123000930B693171058105910530F763E070E02A
:1012400080E090E00E94B40AEACF60E00C94FD08D0
:10125000FC0113AA14AA15AA16AA118212821382DB
:101260001482411551056105710521F0CB01BA01C8
:101270000C94B40A0895FB01BA01A901DC01D296CD
:10128000FC93EE93D19726E0CF010C949D0C1F9315
:10129000CF93DF93EC01162F68E871E089A99AA932
:1012A0000E94F20D4AE050E0612F89A99AA90E949C
:1012B000C10E6FE871E089A99AA90E94F20D62E35C
:1012C00070E080E090E0DF91CF911F910C94B40A20
:1012D0001F93CF93DF93EC01162F8D81882389F123
:1012E00089A99AA9DC01ED91FC910480F581E02D9A
:1012F0000995892BA9F307C02637310519F128353F
:10130000310509F41D8289A99AA9DC01ED91FC91AE
:101310000480F581E02D09951816190694F489A921
:101320009AA9DC01ED91FC910680F781E02D0995E9
:101330009C01332723363105F9F6612FCE010E9437
:10134000470983E6DF91CF911F9108950F931F9373
:10135000CF93DF931F92CDB7DEB78C01662349F0A0
:1013600081E0F801858360E0C80149830E94680933
:101370004981F80145830F90DF91CF911F910F9123
:1013800008958230E8F4E82FF0E0EE0FFF1FE35AF3
:10139000FD4F71836083813041F0809169008C7FC3
:1013A000842B80936900E89A089580916900440F26
:1013B000551F440F551F837F842B80936900E99A42
:1013C00008951F920F920FB60F9211242F933F93FF
:1013D0004F935F936F937F938F939F93AF93BF933D
:1013E000EF93FF9380915D0290915E02892B29F02B
:1013F000E0915D02F0915E020995FF91EF91BF913E
:10140000AF919F918F917F916F915F914F913F919C
:101410002F910F900FBE0F901F9018951F920F9253
:101420000FB60F9211242F933F934F935F936F93B7
:101430007F938F939F93AF93BF93EF93FF9380918D
:101440005F0290916002892B29F0E0915F02F09198
:1014500060020995FF91EF91BF91AF919F918F919C
:101460007F916F915F914F913F912F910F900FBEA0
:101470000F901F9018951F920F920FB60F92112484
:101480002F933F938F939F93AF93BF93809162026B
:1014900090916302A0916402B09165023091610263
:1014A00023E0230F2D3720F40196A11DB11D05C0A7
:1014B00026E8230F0296A11DB11D2093610280939F
:1014C000620290936302A0936402B09365028091DC
:1014D000660290916702A0916802B091690201963C
:1014E000A11DB11D8093660290936702A0936802CC
:1014F000B0936902BF91AF919F918F913F912F91CE
:101500000F900FBE0F901F9018952FB7F894609111
:1015100062027091630280916402909165022FBF14
:1015200008953FB7F8948091660290916702A09168
:101530006802B091690226B5A89B05C02F3F19F03B
:101540000196A11DB11D3FBF6627782F892F9A2FC5
:10155000620F711D811D911D42E0660F771F881F6C
:10156000991F4A95D1F70895CF92DF92EF92FF929B
:10157000CF93DF936B017C010E94910AEB01C114B0
:10158000D104E104F10489F00E94C50F0E94910A80
:101590006C1B7D0B683E734090F381E0C81AD10844
:1015A000E108F108C851DC4FEACFDF91CF91FF90FD
:1015B000EF90DF90CF9008958230910538F0880F3A
:1015C000991F880F991F05970197F1F7089578944F
:1015D00084B5826084BD84B5816084BD85B5826038
:1015E00085BD85B5816085BDEEE6F0E080818160D6
:1015F0008083E1E8F0E010828081826080838081D6
:1016000081608083E0E8F0E0808181608083E1EBAD
:10161000F0E0808184608083E0EBF0E08081816095
:101620008083EAE7F0E0808184608083808182604B
:101630008083808181608083808180688083109234
:10164000C1000895833081F028F4813099F0823010
:10165000A1F008958730A9F08830B9F08430D1F432
:10166000809180008F7D03C0809180008F77809370
:101670008000089584B58F7702C084B58F7D84BDC6
:1016800008958091B0008F7703C08091B0008F7D66
:101690008093B0000895CF93DF9390E0FC01E25770
:1016A000FF4F2491FC01EE55FF4F8491882349F1AF
:1016B00090E0880F991FFC01E653FF4FA591B4916C
:1016C00080549F4FFC01C591D4919FB7611108C010
:1016D000F8948C91209582238C93888182230AC070
:1016E000623051F4F8948C91322F309583238C938F
:1016F0008881822B888304C0F8948C91822B8C93F0
:101700009FBFDF91CF9108950F931F93CF93DF93E6
:101710001F92CDB7DEB7282F30E0F901E658FF4F12
:101720008491F901E257FF4F1491F901EE55FF4FF3
:1017300004910023C9F0882321F069830E94220BC1
:101740006981E02FF0E0EE0FFF1FE054FF4FA591FD
:10175000B4919FB7F8948C91611103C010958123C7
:1017600001C0812B8C939FBF0F90DF91CF911F9170
:101770000F910895FC01818D228D90E0805C9F4F38
:10178000821B91098F7399270895FC01918D828D99
:10179000981731F0828DE80FF11D858D90E0089546
:1017A0008FEF9FEF0895FC01918D828D981761F066
:1017B000828DDF01A80FB11D5D968C91928D9F5F88
:1017C0009F73928F90E008958FEF9FEF089587E5C4
:1017D0009DE0892B49F080E090E0892B29F00E9460
:1017E000570D81110C9400000895FC01848DDF01D8
:1017F000A80FB11DA35ABF4F2C91848D90E0019684
:101800008F739927848FA689B7892C93A089B18972
:101810008C9180648C93938D848D981306C002887C
:10182000F389E02D80818F7D80830895CF93DF93AE
:10183000EC01888D8823C9F0EA89FB89808185FDC8
:1018400005C0A889B9898C9186FD0FC00FB607FC29
:10185000F5CF808185FFF2CFA889B9898C9185FF6A
:10186000EDCFCE010E94F50BE7CFDF91CF91089528
:10187000CF92DF92FF920F931F93CF93DF931F922C
:10188000CDB7DEB76C0181E0D60158968C9358979E
:101890005B969C915B975C968C915C97981307C0C4
:1018A0005096ED91FC915197808185FD2EC0F601F7
:1018B000038D10E00F5F1F4F0F731127F02EF601FD
:1018C000848DF81211C00FB607FCF9CFD6015096DF
:1018D000ED91FC915197808185FFF1CFC60169831D
:1018E0000E94F50B6981EBCF838DE80FF11DE35A60
:1018F000FF4F6083D6015B960C935B975296ED91F8
:10190000FC915397808180620CC0D6015696ED9170
:10191000FC91579760835096ED91FC91519780818F
:101920008064808381E090E00F90DF91CF911F91E0
:101930000F91FF90DF90CF900895BF92CF92DF92EA
:10194000EF92FF92CF93DF93EC016A017B01B22EFD
:10195000E889F98982E08083411581EE58076105A5
:101960007105A1F060E079E08DE390E0A7019601B8
:101970000E94E511215031094109510956954795B9
:1019800037952795211580E1380798F0E889F9897E
:10199000108260E874E88EE190E0A70196010E9451
:1019A000E51121503109410951095695479537955F
:1019B0002795EC85FD853083EE85FF852083188E85
:1019C000EC89FD89B082EA89FB898081806180830E
:1019D000EA89FB89808188608083EA89FB8980812C
:1019E00080688083EA89FB8980818F7D8083DF9195
:1019F000CF91FF90EF90DF90CF90BF9008951F920E
:101A00000F920FB60F9211242F938F939F93EF9302
:101A1000FF93E0917A02F0917B028081E091800255
:101A2000F091810282FD12C09081809183028F5FCC
:101A30008F7320918402821751F0E0918302F0E0CD
:101A4000E659FD4F958F8093830201C08081FF91FD
:101A5000EF919F918F912F910F900FBE0F901F903C
:101A600018951F920F920FB60F9211242F933F9348
:101A70004F935F936F937F938F939F93AF93BF9396
:101A8000EF93FF938AE692E00E94F50BFF91EF91AE
:101A9000BF91AF919F918F917F916F915F914F9186
:101AA0003F912F910F900FBE0F901F9018958AE6CF
:101AB00092E00E94BA0B21E0892B09F420E0822FEA
:101AC000089510926D0210926C0288EE93E0A0E0EF
:101AD000B0E080936E0290936F02A0937002B09377
:101AE000710284EE91E090936B0280936A0285EC20
:101AF00090E0909377028093760284EC90E090934C
:101B000079028093780280EC90E090937B0280933E
:101B10007A0281EC90E090937D0280937C0282ECCB
:101B200090E090937F0280937E0286EC90E0909309
:101B3000810280938002109283021092840210929C
:101B4000850210928602089508950E94E70A0E9475
:101B5000A40D0E94E601C7EEDBE00E9488022097F8
:101B6000E1F30E94E70BF9CFCF92DF92EF92FF9261
:101B70000F931F93CF93DF936C017A01EB01E60E75
:101B8000F71E00E010E0CE15DF0561F06991D60187
:101B9000ED91FC910190F081E02DC6010995080FAF
:101BA000191FF1CFC801DF91CF911F910F91FF90C5
:101BB000EF90DF90CF9008956115710581F0DB0102
:101BC0000D900020E9F7AD0141505109461B570B1C
:101BD000DC01ED91FC910280F381E02D099480E01D
:101BE00090E008950C94DC0DDC01ED91FC910190E6
:101BF000F081E02D099465E971E00C94DC0D0F9300
:101C00001F93CF93DF93EC010E94DC0D8C01CE017A
:101C10000E94FB0D800F911FDF91CF911F910F91BB
:101C200008958F929F92AF92BF92CF92DF92EF92E0
:101C3000FF920F931F93CF93DF93CDB7DEB7A1979A
:101C40000FB6F894DEBF0FBECDBF7C01C42EE52FCA
:101C5000CB01D22E19A221E02D1510F02AE0D22EB0
:101C60008E010F5D1F4F8D2C912CA12CB12C6C2D52
:101C70007E2FA50194010E94E5118C2DD29E801922
:101C80001124015011098A3014F4805D01C0895C6F
:101C9000F8018083211531054105510521F0C22E3F
:101CA000E32FCA01E4CFB801C7010E94DC0DA19661
:101CB0000FB6F894DEBF0FBECDBFDF91CF911F915D
:101CC0000F91FF90EF90DF90CF90BF90AF909F90DB
:101CD0008F900895CF92DF92EF92FF920F931F9310
:101CE000CF93DF93EC016A017B012115310579F473
:101CF000E881F9810190F081E02D642FDF91CF918F
:101D00001F910F91FF90EF90DF90CF9009942A30B0
:101D10003105E9F477FF1AC06DE20E94F40D8C01E1
:101D200044275527BA014C195D096E097F092AE03D
:101D3000CE010E94110E800F911FDF91CF911F9154
:101D40000F91FF90EF90DF90CF9008952AE0B701B8
:101D5000A601CE01DF91CF911F910F91FF90EF90DF
:101D6000DF90CF900C94110E2115310541F4DC0168
:101D7000ED91FC910190F081E02D642F09940C9479
:101D8000110E9A01462F50E060E070E00C94B40E02
:101D90004F925F926F927F928F929F92AF92BF927B
:101DA000CF92DF92EF92FF920F931F93CF93DF9327
:101DB000EC016A017B01B22E9A01AB01C701B601A9
:101DC0000E94E111882319F060EF71E027C026011D
:101DD0003701E89477F82FEF3FEF4FE75FE7C30154
:101DE000B2010E94E11181110DC02FEF3FEF4FE7CB
:101DF0005FE7C301B2010E942B1018161CF464EFB8
:101E000071E00CC02FEF3FEF4FE75FE4C701B60171
:101E10000E947A111816ACF468EF71E0CE01DF91E0
:101E2000CF911F910F91FF90EF90DF90CF90BF90D7
:101E3000AF909F908F907F906F905F904F900C9499
:101E4000DC0D2FEF3FEF4FE75FECC701B6010E94BB
:101E50002B1087FDE1CF20E030E0A901C701B601DA
:101E60000E942B1087FF0AC06DE2CE010E94F40D84
:101E70008C01F7FAF094F7F8F09402C000E010E05B
:101E8000A12C60E070E080E09FE3AB1441F020E023
:101E900030E040E251E40E942F10A394F6CF9B0162
:101EA000AC01C701B6010E94C70F6B017C010E9403
:101EB0009C102B013C010E94C8109B01AC01C70182
:101EC000B6010E94C60F6B017C012AE0B301A2019A
:101ED000CE010E94110E080F191FBB2039F06CE5CE
:101EE00071E0CE010E94DC0D080F191F7B2C7720BA
:101EF00041F120E030E040E251E4C701B6010E9428
:101F00007E116B017C010E9497104B01AA2497FC63
:101F1000A094BA2C2AE030E0B501A401CE010E94C1
:101F20006A0E080F191FC501B4010E94CA109B0157
:101F3000AC01C701B6010E94C60F6B017C017A9407
:101F4000D6CFC801DF91CF911F910F91FF90EF90F5
:101F5000DF90CF90BF90AF909F908F907F906F90C9
:101F60005F904F9008950F931F93CF93DF93EC01F1
:101F70000E94C80E8C01CE010E94FB0D800F911FA4
:101F8000DF91CF911F910F91089508955058BB276D
:101F9000AA270ED075C166D130F06BD120F031F494
:101FA0009F3F11F41EF45BC10EF4E095E7FB51C1B5
:101FB000E92F77D180F3BA17620773078407950773
:101FC00018F071F49EF58FC10EF4E0950B2EBA2F28
:101FD000A02D0B01B90190010C01CA01A00111242F
:101FE000FF27591B99F0593F50F4503E68F11A16DB
:101FF000F040A22F232F342F4427585FF3CF46956C
:1020000037952795A795F0405395C9F77EF41F168D
:10201000BA0B620B730B840BBAF09150A1F0FF0F57
:10202000BB1F661F771F881FC2F70EC0BA0F621F43
:10203000731F841F48F4879577956795B795F79533
:102040009E3F08F0B3CF9395880F08F09927EE0FC5
:10205000979587950895D9D008F481E008950CD01C
:102060000FC107D140F0FED030F021F45F3F19F0EE
:10207000F0C0511139C1F3C014D198F39923C9F3B9
:102080005523B1F3951B550BBB27AA27621773077E
:10209000840738F09F5F5F4F220F331F441FAA1F32
:1020A000A9F333D00E2E3AF0E0E830D091505040F2
:1020B000E695001CCAF729D0FE2F27D0660F771FA0
:1020C000881FBB1F261737074807AB07B0E809F082
:1020D000BB0B802DBF01FF2793585F4F2AF09E3F17
:1020E000510568F0B6C000C15F3FECF3983EDCF3E9
:1020F000869577956795B795F7959F5FC9F7880F90
:10210000911D9695879597F90895E1E0660F771FE1
:10211000881FBB1F621773078407BA0720F0621B72
:10212000730B840BBA0BEE1F88F7E095089504D06B
:102130006894B111D9C00895BCD088F09F5790F031
:10214000B92F9927B751A0F0D1F0660F771F881FDC
:10215000991F1AF0BA95C9F712C0B13081F0C3D0F7
:10216000B1E00895C0C0672F782F8827B85F39F095
:10217000B93FCCF3869577956795B395D9F73EF43B
:1021800090958095709561957F4F8F4F9F4F0895E3
:10219000E89409C097FB3EF4909580957095619501
:1021A0007F4F8F4F9F4F9923A9F0F92F96E9BB27B7
:1021B0009395F695879577956795B795F111F8CF33
:1021C000FAF4BB0F11F460FF1BC06F5F7F4F8F4F9E
:1021D0009F4F16C0882311F096E911C0772321F094
:1021E0009EE8872F762F05C0662371F096E8862F2C
:1021F00070E060E02AF09A95660F771F881FDAF783
:10220000880F9695879597F90895990F0008550FAF
:10221000AA0BE0E8FEEF16161706E807F907C0F06C
:1022200012161306E407F50798F0621B730B840B74
:10223000950B39F40A2661F0232B242B252B21F44E
:1022400008950A2609F4A140A6958FEF811D811DEE
:10225000089597F99F6780E870E060E008959FEF28
:1022600080EC089500240A9416161706180609062D
:10227000089500240A9412161306140605060895FC
:10228000092E0394000C11F4882352F0BB0F40F484
:10229000BF2B11F460FF04C06F5F7F4F8F4F9F4FC4
:1022A000089557FD9058440F551F59F05F3F71F046
:1022B0004795880F97FB991F61F09F3F79F08795AD
:1022C0000895121613061406551FF2CF4695F1DF36
:1022D00008C0161617061806991FF1CF86957105C6
:1022E000610508940895E894BB2766277727CB01FA
:1022F00097F908958ADF08F48FEF08950BD0C0CFC7
:10230000B1DF28F0B6DF18F0952309F0A2CFA7CFF0
:102310001124EACFC6DFA0F3959FD1F3950F50E0CB
:10232000551F629FF001729FBB27F00DB11D639F87
:10233000AA27F00DB11DAA1F649F6627B00DA11D2D
:10234000661F829F2227B00DA11D621F739FB00DD3
:10235000A11D621F839FA00D611D221F749F332743
:10236000A00D611D231F849F600D211D822F762FDC
:102370006A2F11249F5750408AF0E1F088234AF0D9
:10238000EE0FFF1FBB1F661F771F881F9150504025
:10239000A9F79E3F510570F05CCFA6CF5F3FECF3ED
:1023A000983EDCF3869577956795B795F795E79511
:1023B0009F5FC1F7FE2B880F911D9695879597F922
:1023C000089523DF880B990B0895A1E21A2EAA1B0A
:1023D000BB1BFD010DC0AA1FBB1FEE1FFF1FA217D5
:1023E000B307E407F50720F0A21BB30BE40BF50BD2
:1023F000661F771F881F991F1A9469F7609570955B
:10240000809590959B01AC01BD01CF010895052EEB
:1024100097FB1EF400940E941E1257FD07D00E94E5
:10242000E51107FC03D04EF40C941E125095409514
:10243000309521953F4F4F4F5F4F08959095809570
:10244000709561957F4F8F4F9F4F0895EE0FFF1F3F
:102450000590F491E02D0994FB01DC0102C001908C
:0E2460000D9241505040D8F70895F894FFCFE8
:10246E00000000000031384232305F74656D702814
:10247E00432900000000000000000000000042613F
:10248E0074745F706F7728562900000000000000FA
:10249E00000000000000005377697468000000001F
:1024AE0000000000000000000000000400546F6FE8
:1024BE0020626967206E756D207061722E00446116
:1024CE00746100564D4450565F317C315F564D4419
:1024DE0050560D0A00564D4450455F31007C005F4A
:1024EE00564D4450450D0A00564D4450435F005F13
:1024FE00564D4450430D0A004572726F723A204198
:10250E007474656D707420746F207365742061200F
:10251E00726561642D6F6E6C79207661726961628D
:10252E006C65206F7220646174612074797065200F
:10253E006E6F7420737570706F727465640D0A001F
:10254E0000000000380CB40DBA0BD30BC50B160CE3
:0C255E006E616E00696E66006F766600AC
:00000001FF
